{
  "_format": "hh-sol-artifact-1",
  "contractName": "DeepGems",
  "sourceName": "contracts/DeepGems.sol",
  "abi": [
    {
      "inputs": [
        {
          "internalType": "address",
          "name": "psiContract",
          "type": "address"
        },
        {
          "internalType": "address[]",
          "name": "artistAddresses",
          "type": "address[]"
        },
        {
          "internalType": "uint8[]",
          "name": "artistPercentages",
          "type": "uint8[]"
        },
        {
          "internalType": "string",
          "name": "baseURI",
          "type": "string"
        }
      ],
      "stateMutability": "nonpayable",
      "type": "constructor"
    },
    {
      "anonymous": false,
      "inputs": [
        {
          "indexed": true,
          "internalType": "uint256",
          "name": "tokenId",
          "type": "uint256"
        }
      ],
      "name": "Activated",
      "type": "event"
    },
    {
      "anonymous": false,
      "inputs": [
        {
          "indexed": true,
          "internalType": "address",
          "name": "owner",
          "type": "address"
        },
        {
          "indexed": true,
          "internalType": "address",
          "name": "approved",
          "type": "address"
        },
        {
          "indexed": true,
          "internalType": "uint256",
          "name": "tokenId",
          "type": "uint256"
        }
      ],
      "name": "Approval",
      "type": "event"
    },
    {
      "anonymous": false,
      "inputs": [
        {
          "indexed": true,
          "internalType": "address",
          "name": "owner",
          "type": "address"
        },
        {
          "indexed": true,
          "internalType": "address",
          "name": "operator",
          "type": "address"
        },
        {
          "indexed": false,
          "internalType": "bool",
          "name": "approved",
          "type": "bool"
        }
      ],
      "name": "ApprovalForAll",
      "type": "event"
    },
    {
      "anonymous": false,
      "inputs": [
        {
          "indexed": true,
          "internalType": "uint256",
          "name": "tokenId",
          "type": "uint256"
        }
      ],
      "name": "Burned",
      "type": "event"
    },
    {
      "anonymous": false,
      "inputs": [
        {
          "indexed": true,
          "internalType": "uint256",
          "name": "tokenId",
          "type": "uint256"
        }
      ],
      "name": "Forged",
      "type": "event"
    },
    {
      "anonymous": false,
      "inputs": [
        {
          "indexed": true,
          "internalType": "uint256",
          "name": "oldTokenId",
          "type": "uint256"
        },
        {
          "indexed": true,
          "internalType": "uint256",
          "name": "newTokenId",
          "type": "uint256"
        }
      ],
      "name": "Reforged",
      "type": "event"
    },
    {
      "anonymous": false,
      "inputs": [
        {
          "indexed": true,
          "internalType": "address",
          "name": "from",
          "type": "address"
        },
        {
          "indexed": true,
          "internalType": "address",
          "name": "to",
          "type": "address"
        },
        {
          "indexed": true,
          "internalType": "uint256",
          "name": "tokenId",
          "type": "uint256"
        }
      ],
      "name": "Transfer",
      "type": "event"
    },
    {
      "inputs": [
        {
          "internalType": "uint256",
          "name": "",
          "type": "uint256"
        }
      ],
      "name": "ARTIST_ADDRESSES",
      "outputs": [
        {
          "internalType": "address",
          "name": "",
          "type": "address"
        }
      ],
      "stateMutability": "view",
      "type": "function"
    },
    {
      "inputs": [
        {
          "internalType": "uint256",
          "name": "",
          "type": "uint256"
        }
      ],
      "name": "ARTIST_PERCENTAGES",
      "outputs": [
        {
          "internalType": "uint8",
          "name": "",
          "type": "uint8"
        }
      ],
      "stateMutability": "view",
      "type": "function"
    },
    {
      "inputs": [],
      "name": "PSI_CONTRACT",
      "outputs": [
        {
          "internalType": "address",
          "name": "",
          "type": "address"
        }
      ],
      "stateMutability": "view",
      "type": "function"
    },
    {
      "inputs": [
        {
          "internalType": "uint256",
          "name": "tokenId",
          "type": "uint256"
        }
      ],
      "name": "activate",
      "outputs": [],
      "stateMutability": "nonpayable",
      "type": "function"
    },
    {
      "inputs": [
        {
          "internalType": "address",
          "name": "to",
          "type": "address"
        },
        {
          "internalType": "uint256",
          "name": "tokenId",
          "type": "uint256"
        }
      ],
      "name": "approve",
      "outputs": [],
      "stateMutability": "nonpayable",
      "type": "function"
    },
    {
      "inputs": [],
      "name": "artistWithdraw",
      "outputs": [],
      "stateMutability": "nonpayable",
      "type": "function"
    },
    {
      "inputs": [
        {
          "internalType": "address",
          "name": "owner",
          "type": "address"
        }
      ],
      "name": "balanceOf",
      "outputs": [
        {
          "internalType": "uint256",
          "name": "",
          "type": "uint256"
        }
      ],
      "stateMutability": "view",
      "type": "function"
    },
    {
      "inputs": [
        {
          "internalType": "uint256",
          "name": "tokenId",
          "type": "uint256"
        }
      ],
      "name": "burn",
      "outputs": [],
      "stateMutability": "nonpayable",
      "type": "function"
    },
    {
      "inputs": [
        {
          "internalType": "uint256",
          "name": "amountPsi",
          "type": "uint256"
        }
      ],
      "name": "forge",
      "outputs": [
        {
          "internalType": "uint256",
          "name": "",
          "type": "uint256"
        }
      ],
      "stateMutability": "nonpayable",
      "type": "function"
    },
    {
      "inputs": [
        {
          "internalType": "uint256",
          "name": "tokenId",
          "type": "uint256"
        }
      ],
      "name": "getApproved",
      "outputs": [
        {
          "internalType": "address",
          "name": "",
          "type": "address"
        }
      ],
      "stateMutability": "view",
      "type": "function"
    },
    {
      "inputs": [
        {
          "internalType": "uint256",
          "name": "tokenId",
          "type": "uint256"
        }
      ],
      "name": "getGemMetadata",
      "outputs": [
        {
          "internalType": "uint32",
          "name": "",
          "type": "uint32"
        },
        {
          "internalType": "uint32",
          "name": "",
          "type": "uint32"
        },
        {
          "internalType": "uint32",
          "name": "",
          "type": "uint32"
        },
        {
          "internalType": "uint32",
          "name": "",
          "type": "uint32"
        },
        {
          "internalType": "uint32",
          "name": "",
          "type": "uint32"
        }
      ],
      "stateMutability": "pure",
      "type": "function"
    },
    {
      "inputs": [
        {
          "internalType": "address",
          "name": "owner",
          "type": "address"
        },
        {
          "internalType": "address",
          "name": "operator",
          "type": "address"
        }
      ],
      "name": "isApprovedForAll",
      "outputs": [
        {
          "internalType": "bool",
          "name": "",
          "type": "bool"
        }
      ],
      "stateMutability": "view",
      "type": "function"
    },
    {
      "inputs": [],
      "name": "name",
      "outputs": [
        {
          "internalType": "string",
          "name": "",
          "type": "string"
        }
      ],
      "stateMutability": "view",
      "type": "function"
    },
    {
      "inputs": [
        {
          "internalType": "uint256",
          "name": "tokenId",
          "type": "uint256"
        }
      ],
      "name": "ownerOf",
      "outputs": [
        {
          "internalType": "address",
          "name": "",
          "type": "address"
        }
      ],
      "stateMutability": "view",
      "type": "function"
    },
    {
      "inputs": [
        {
          "internalType": "uint256",
          "name": "oldTokenId",
          "type": "uint256"
        }
      ],
      "name": "reforge",
      "outputs": [],
      "stateMutability": "nonpayable",
      "type": "function"
    },
    {
      "inputs": [
        {
          "internalType": "address",
          "name": "from",
          "type": "address"
        },
        {
          "internalType": "address",
          "name": "to",
          "type": "address"
        },
        {
          "internalType": "uint256",
          "name": "tokenId",
          "type": "uint256"
        }
      ],
      "name": "safeTransferFrom",
      "outputs": [],
      "stateMutability": "nonpayable",
      "type": "function"
    },
    {
      "inputs": [
        {
          "internalType": "address",
          "name": "from",
          "type": "address"
        },
        {
          "internalType": "address",
          "name": "to",
          "type": "address"
        },
        {
          "internalType": "uint256",
          "name": "tokenId",
          "type": "uint256"
        },
        {
          "internalType": "bytes",
          "name": "_data",
          "type": "bytes"
        }
      ],
      "name": "safeTransferFrom",
      "outputs": [],
      "stateMutability": "nonpayable",
      "type": "function"
    },
    {
      "inputs": [
        {
          "internalType": "address",
          "name": "operator",
          "type": "address"
        },
        {
          "internalType": "bool",
          "name": "approved",
          "type": "bool"
        }
      ],
      "name": "setApprovalForAll",
      "outputs": [],
      "stateMutability": "nonpayable",
      "type": "function"
    },
    {
      "inputs": [],
      "name": "state_pendingArtistPayout",
      "outputs": [
        {
          "internalType": "uint256",
          "name": "",
          "type": "uint256"
        }
      ],
      "stateMutability": "view",
      "type": "function"
    },
    {
      "inputs": [
        {
          "internalType": "uint256",
          "name": "",
          "type": "uint256"
        }
      ],
      "name": "state_unactivatedGems",
      "outputs": [
        {
          "internalType": "address",
          "name": "",
          "type": "address"
        }
      ],
      "stateMutability": "view",
      "type": "function"
    },
    {
      "inputs": [
        {
          "internalType": "bytes4",
          "name": "interfaceId",
          "type": "bytes4"
        }
      ],
      "name": "supportsInterface",
      "outputs": [
        {
          "internalType": "bool",
          "name": "",
          "type": "bool"
        }
      ],
      "stateMutability": "view",
      "type": "function"
    },
    {
      "inputs": [],
      "name": "symbol",
      "outputs": [
        {
          "internalType": "string",
          "name": "",
          "type": "string"
        }
      ],
      "stateMutability": "view",
      "type": "function"
    },
    {
      "inputs": [
        {
          "internalType": "uint256",
          "name": "tokenId",
          "type": "uint256"
        }
      ],
      "name": "tokenURI",
      "outputs": [
        {
          "internalType": "string",
          "name": "",
          "type": "string"
        }
      ],
      "stateMutability": "view",
      "type": "function"
    },
    {
      "inputs": [
        {
          "internalType": "address",
          "name": "from",
          "type": "address"
        },
        {
          "internalType": "address",
          "name": "to",
          "type": "address"
        },
        {
          "internalType": "uint256",
          "name": "tokenId",
          "type": "uint256"
        }
      ],
      "name": "transferFrom",
      "outputs": [],
      "stateMutability": "nonpayable",
      "type": "function"
    }
  ],
  "bytecode": "0x60806040523480156200001157600080fd5b5060405162002af038038062002af08339810160408190526200003491620004ff565b6040805180820182526009815268446565702047656d7360b81b6020808301918252835180850190945260048452630444545560e41b90840152815191929162000081916000916200022a565b508051620000979060019060208401906200022a565b5050508151835114620000f15760405162461bcd60e51b815260206004820152601560248201527f6d616c666f726d65642061727469737420696e666f000000000000000000000060448201526064015b60405180910390fd5b6000805b8351816001600160401b031610156200015e5783816001600160401b0316815181106200013257634e487b7160e01b600052603260045260246000fd5b60200260200101518262000147919062000664565b9150806200015581620006c9565b915050620000f5565b508060ff16606414620001c25760405162461bcd60e51b815260206004820152602560248201527f6172746973742070657263656e7461676573206d75737420616464207570207460448201526406f203130360dc1b6064820152608401620000e8565b600680546001600160a01b0319166001600160a01b0387161790558351620001f2906007906020870190620002b9565b5082516200020890600890602086019062000311565b5081516200021e9060099060208501906200022a565b5050505050506200071f565b82805462000238906200068c565b90600052602060002090601f0160209004810192826200025c5760008555620002a7565b82601f106200027757805160ff1916838001178555620002a7565b82800160010185558215620002a7579182015b82811115620002a75782518255916020019190600101906200028a565b50620002b5929150620003b4565b5090565b828054828255906000526020600020908101928215620002a7579160200282015b82811115620002a757825182546001600160a01b0319166001600160a01b03909116178255602090920191600190910190620002da565b82805482825590600052602060002090601f01602090048101928215620002a75791602002820160005b838211156200037b57835183826101000a81548160ff021916908360ff16021790555092602001926001016020816000010492830192600103026200033b565b8015620003aa5782816101000a81549060ff02191690556001016020816000010492830192600103026200037b565b5050620002b59291505b5b80821115620002b55760008155600101620003b5565b80516001600160a01b0381168114620003e357600080fd5b919050565b600082601f830112620003f9578081fd5b81516020620004126200040c836200063e565b6200060b565b80838252828201915082860187848660051b890101111562000432578586fd5b855b858110156200046157815160ff811681146200044e578788fd5b8452928401929084019060010162000434565b5090979650505050505050565b600082601f8301126200047f578081fd5b81516001600160401b038111156200049b576200049b62000709565b6020620004b1601f8301601f191682016200060b565b8281528582848701011115620004c5578384fd5b835b83811015620004e4578581018301518282018401528201620004c7565b83811115620004f557848385840101525b5095945050505050565b6000806000806080858703121562000515578384fd5b6200052085620003cb565b602086810151919550906001600160401b03808211156200053f578586fd5b818801915088601f83011262000553578586fd5b8151620005646200040c826200063e565b8082825285820191508585018c878560051b88010111156200058457898afd5b8995505b83861015620005b1576200059c81620003cb565b83526001959095019491860191860162000588565b5060408b01519098509450505080831115620005cb578485fd5b620005d989848a01620003e8565b94506060880151925080831115620005ef578384fd5b5050620005ff878288016200046e565b91505092959194509250565b604051601f8201601f191681016001600160401b038111828210171562000636576200063662000709565b604052919050565b60006001600160401b038211156200065a576200065a62000709565b5060051b60200190565b600060ff821660ff84168060ff03821115620006845762000684620006f3565b019392505050565b600181811c90821680620006a157607f821691505b60208210811415620006c357634e487b7160e01b600052602260045260246000fd5b50919050565b60006001600160401b0382811680821415620006e957620006e9620006f3565b6001019392505050565b634e487b7160e01b600052601160045260246000fd5b634e487b7160e01b600052604160045260246000fd5b6123c1806200072f6000396000f3fe608060405234801561001057600080fd5b50600436106101985760003560e01c80638bfecb85116100e3578063b88d4fde1161008c578063e026285511610066578063e026285514610394578063e11ead0a146103a7578063e985e9c5146103d057610198565b8063b88d4fde14610366578063c87b56dd14610379578063d8c766061461038c57610198565b8063a22cb465116100bd578063a22cb4651461032d578063a94e834b14610340578063b260c42a1461035357610198565b80638bfecb85146102c857806395d89b4114610312578063991a73e51461031a57610198565b80633c2a1e2011610145578063634945721161011f578063634945721461028b5780636352211e146102a257806370a08231146102b557610198565b80633c2a1e201461024057806342842e0e1461026557806342966c681461027857610198565b8063095ea7b311610176578063095ea7b31461020557806323b872dd1461021a5780632fe454a71461022d57610198565b806301ffc9a71461019d57806306fdde03146101c5578063081812fc146101da575b600080fd5b6101b06101ab366004612003565b61040c565b60405190151581526020015b60405180910390f35b6101cd6104f3565b6040516101bc9190612108565b6101ed6101e836600461203b565b610585565b6040516001600160a01b0390911681526020016101bc565b610218610213366004611fbe565b610630565b005b610218610228366004611e5a565b610762565b6101ed61023b36600461203b565b6107e9565b61025361024e36600461203b565b610813565b60405160ff90911681526020016101bc565b610218610273366004611e5a565b610847565b61021861028636600461203b565b610862565b610294600a5481565b6040519081526020016101bc565b6101ed6102b036600461203b565b610a4e565b6102946102c3366004611e0e565b610ad9565b6102db6102d636600461203b565b610b73565b6040805163ffffffff968716815294861660208601529285169284019290925283166060830152909116608082015260a0016101bc565b6101cd610bd1565b6006546101ed906001600160a01b031681565b61021861033b366004611f88565b610be0565b61029461034e36600461203b565b610cd0565b61021861036136600461203b565b610d8d565b610218610374366004611e95565b610e87565b6101cd61038736600461203b565b610f15565b610218610ffe565b6102186103a236600461203b565b6111c6565b6101ed6103b536600461203b565b600b602052600090815260409020546001600160a01b031681565b6101b06103de366004611e28565b6001600160a01b03918216600090815260056020908152604080832093909416825291909152205460ff1690565b60007fffffffff0000000000000000000000000000000000000000000000000000000082167f80ac58cd00000000000000000000000000000000000000000000000000000000148061049f57507fffffffff0000000000000000000000000000000000000000000000000000000082167f5b5e139f00000000000000000000000000000000000000000000000000000000145b806104eb57507f01ffc9a7000000000000000000000000000000000000000000000000000000007fffffffff000000000000000000000000000000000000000000000000000000008316145b90505b919050565b606060008054610502906121f6565b80601f016020809104026020016040519081016040528092919081815260200182805461052e906121f6565b801561057b5780601f106105505761010080835404028352916020019161057b565b820191906000526020600020905b81548152906001019060200180831161055e57829003601f168201915b5050505050905090565b6000818152600260205260408120546001600160a01b03166106145760405162461bcd60e51b815260206004820152602c60248201527f4552433732313a20617070726f76656420717565727920666f72206e6f6e657860448201527f697374656e7420746f6b656e000000000000000000000000000000000000000060648201526084015b60405180910390fd5b506000908152600460205260409020546001600160a01b031690565b600061063b82610a4e565b9050806001600160a01b0316836001600160a01b031614156106c55760405162461bcd60e51b815260206004820152602160248201527f4552433732313a20617070726f76616c20746f2063757272656e74206f776e6560448201527f7200000000000000000000000000000000000000000000000000000000000000606482015260840161060b565b336001600160a01b03821614806106e157506106e181336103de565b6107535760405162461bcd60e51b815260206004820152603860248201527f4552433732313a20617070726f76652063616c6c6572206973206e6f74206f7760448201527f6e6572206e6f7220617070726f76656420666f7220616c6c0000000000000000606482015260840161060b565b61075d83836112d7565b505050565b61076c338261135d565b6107de5760405162461bcd60e51b815260206004820152603160248201527f4552433732313a207472616e736665722063616c6c6572206973206e6f74206f60448201527f776e6572206e6f7220617070726f766564000000000000000000000000000000606482015260840161060b565b61075d838383611465565b600781815481106107f957600080fd5b6000918252602090912001546001600160a01b0316905081565b6008818154811061082357600080fd5b9060005260206000209060209182820401919006915054906101000a900460ff1681565b61075d83838360405180602001604052806000815250610e87565b6000818152600b60205260409020546001600160a01b03163314156108ba576000818152600b6020526040902080547fffffffffffffffffffffffff0000000000000000000000000000000000000000169055610971565b6000818152600260205260409020546001600160a01b0316151580156108f05750336108e582610a4e565b6001600160a01b0316145b15610903576108fe8161164a565b610971565b60405162461bcd60e51b815260206004820152602b60248201527f746869732067656d20646f6573206e6f74206578697374206f7220796f75206460448201527f6f6e2774206f776e206974000000000000000000000000000000000000000000606482015260840161060b565b6006546040517fa9059cbb0000000000000000000000000000000000000000000000000000000081523360048201526fffffffffffffffffffffffffffffffff831660248201526001600160a01b039091169063a9059cbb90604401602060405180830381600087803b1580156109e757600080fd5b505af11580156109fb573d6000803e3d6000fd5b505050506040513d601f19601f82011682018060405250810190610a1f9190611fe7565b5060405181907fd83c63197e8e676d80ab0122beba9a9d20f3828839e9a1d6fe81d242e9cd7e6e90600090a250565b6000818152600260205260408120546001600160a01b0316806104eb5760405162461bcd60e51b815260206004820152602960248201527f4552433732313a206f776e657220717565727920666f72206e6f6e657869737460448201527f656e7420746f6b656e0000000000000000000000000000000000000000000000606482015260840161060b565b60006001600160a01b038216610b575760405162461bcd60e51b815260206004820152602a60248201527f4552433732313a2062616c616e636520717565727920666f7220746865207a6560448201527f726f206164647265737300000000000000000000000000000000000000000000606482015260840161060b565b506001600160a01b031660009081526003602052604090205490565b600080808080608086901c8682610b92670de0b6b3a764000083612133565b606084901c63ffffffff169a604085901c67ffffffffffffffff169a50602085901c6bffffffffffffffffffffffff1699509397509550919350505050565b606060018054610502906121f6565b6001600160a01b038216331415610c395760405162461bcd60e51b815260206004820152601960248201527f4552433732313a20617070726f766520746f2063616c6c657200000000000000604482015260640161060b565b3360008181526005602090815260408083206001600160a01b038716808552925290912080547fffffffffffffffffffffffffffffffffffffffffffffffffffffffffffffff0016841515179055906001600160a01b03167f17307eab39ab6107e8899845ad3d59bd9653f200f220920489ca2b5937696c3183604051610cc4911515815260200190565b60405180910390a35050565b6006546040517ffe9b9ad5000000000000000000000000000000000000000000000000000000008152336004820152602481018390526000916001600160a01b03169063fe9b9ad590604401600060405180830381600087803b158015610d3657600080fd5b505af1158015610d4a573d6000803e3d6000fd5b505050506000610d59836116fd565b60405190915081907fa22a31dd1a00f78bee760c51c0ef685aca8f4bec18943fe176e64d80379cc15e90600090a292915050565b6000818152600b60205260409020546001600160a01b03163314610e1b576040805162461bcd60e51b81526020600482015260248101919091527f67656d20697320616c7265616479206163746976617465642c20796f7520646f60448201527f6e2774206f776e2069742c206f7220697420646f6573206e6f74206578697374606482015260840161060b565b6000818152600b6020526040902080547fffffffffffffffffffffffff0000000000000000000000000000000000000000169055610e5933826118b9565b60405181907f3ec796be1be7d03bff3a62b9fa594a60e947c1809bced06d929f145308ae57ce90600090a250565b610e91338361135d565b610f035760405162461bcd60e51b815260206004820152603160248201527f4552433732313a207472616e736665722063616c6c6572206973206e6f74206f60448201527f776e6572206e6f7220617070726f766564000000000000000000000000000000606482015260840161060b565b610f0f84848484611a13565b50505050565b6000818152600260205260409020546060906001600160a01b0316610fa25760405162461bcd60e51b815260206004820152602f60248201527f4552433732314d657461646174613a2055524920717565727920666f72206e6f60448201527f6e6578697374656e7420746f6b656e0000000000000000000000000000000000606482015260840161060b565b6000610fac611a9c565b90506000815111610fcc5760405180602001604052806000815250610ff7565b80610fd684611aab565b604051602001610fe792919061209d565b6040516020818303038152906040525b9392505050565b60006064600a5461100f9190612162565b6000600a8190559091505b60075467ffffffffffffffff821610156111c257600654600780546001600160a01b039092169163a9059cbb919067ffffffffffffffff8516908110611089577f4e487b7100000000000000000000000000000000000000000000000000000000600052603260045260246000fd5b9060005260206000200160009054906101000a90046001600160a01b03168460088567ffffffffffffffff16815481106110ec577f4e487b7100000000000000000000000000000000000000000000000000000000600052603260045260246000fd5b90600052602060002090602091828204019190069054906101000a900460ff1660ff166111199190612176565b6040517fffffffff0000000000000000000000000000000000000000000000000000000060e085901b1681526001600160a01b0390921660048301526024820152604401602060405180830381600087803b15801561117757600080fd5b505af115801561118b573d6000803e3d6000fd5b505050506040513d601f19601f820116820180604052508101906111af9190611fe7565b50806111ba81612283565b91505061101a565b5050565b6000818152600b60205260409020546001600160a01b03163314611254576040805162461bcd60e51b81526020600482015260248101919091527f67656d20697320616c7265616479206163746976617465642c20796f7520646f60448201527f6e2774206f776e2069742c206f7220697420646f6573206e6f74206578697374606482015260840161060b565b6000818152600b6020526040812080547fffffffffffffffffffffffff00000000000000000000000000000000000000001690556112a36fffffffffffffffffffffffffffffffff83166116fd565b905080827f0ac50292890370017bcbe7f41421fb0c343be2b92f45e7538af33f84fdb4ee7960405160405180910390a35050565b600081815260046020526040902080547fffffffffffffffffffffffff0000000000000000000000000000000000000000166001600160a01b038416908117909155819061132482610a4e565b6001600160a01b03167f8c5be1e5ebec7d5bd14f71427d1e84f3dd0314c0f7b2291e5b200ac8c7c3b92560405160405180910390a45050565b6000818152600260205260408120546001600160a01b03166113e75760405162461bcd60e51b815260206004820152602c60248201527f4552433732313a206f70657261746f7220717565727920666f72206e6f6e657860448201527f697374656e7420746f6b656e0000000000000000000000000000000000000000606482015260840161060b565b60006113f283610a4e565b9050806001600160a01b0316846001600160a01b0316148061142d5750836001600160a01b031661142284610585565b6001600160a01b0316145b8061145d57506001600160a01b0380821660009081526005602090815260408083209388168352929052205460ff165b949350505050565b826001600160a01b031661147882610a4e565b6001600160a01b0316146114f45760405162461bcd60e51b815260206004820152602960248201527f4552433732313a207472616e73666572206f6620746f6b656e2074686174206960448201527f73206e6f74206f776e0000000000000000000000000000000000000000000000606482015260840161060b565b6001600160a01b03821661156f5760405162461bcd60e51b8152602060048201526024808201527f4552433732313a207472616e7366657220746f20746865207a65726f2061646460448201527f7265737300000000000000000000000000000000000000000000000000000000606482015260840161060b565b61157a6000826112d7565b6001600160a01b03831660009081526003602052604081208054600192906115a39084906121b3565b90915550506001600160a01b03821660009081526003602052604081208054600192906115d190849061211b565b909155505060008181526002602052604080822080547fffffffffffffffffffffffff0000000000000000000000000000000000000000166001600160a01b0386811691821790925591518493918716917fddf252ad1be2c89b69c2b068fc378daa952ba7f163c4a11628f55a4df523b3ef91a4505050565b600061165582610a4e565b90506116626000836112d7565b6001600160a01b038116600090815260036020526040812080546001929061168b9084906121b3565b909155505060008281526002602052604080822080547fffffffffffffffffffffffff0000000000000000000000000000000000000000169055518391906001600160a01b038416907fddf252ad1be2c89b69c2b068fc378daa952ba7f163c4a11628f55a4df523b3ef908390a45050565b60008061170b601484612162565b9050600061171982856121b3565b9050600061179d61175e3361172f6005436121b3565b4067ffffffffffffffff1660409190911b77ffffffffffffffffffffffffffffffff0000000000000000161790565b836fffffffffffffffffffffffffffffffff1660809190911b7fffffffffffffffffffffffffffffffff00000000000000000000000000000000161790565b6000818152600b60205260409020549091506001600160a01b0316156118055760405162461bcd60e51b815260206004820152600a60248201527f67656d2065786973747300000000000000000000000000000000000000000000604482015260640161060b565b6000818152600260205260409020546001600160a01b03161561186a5760405162461bcd60e51b815260206004820152600a60248201527f67656d2065786973747300000000000000000000000000000000000000000000604482015260640161060b565b6000818152600b6020526040902080547fffffffffffffffffffffffff00000000000000000000000000000000000000001633179055600a546118ae90849061211b565b600a55949350505050565b6001600160a01b03821661190f5760405162461bcd60e51b815260206004820181905260248201527f4552433732313a206d696e7420746f20746865207a65726f2061646472657373604482015260640161060b565b6000818152600260205260409020546001600160a01b0316156119745760405162461bcd60e51b815260206004820152601c60248201527f4552433732313a20746f6b656e20616c7265616479206d696e74656400000000604482015260640161060b565b6001600160a01b038216600090815260036020526040812080546001929061199d90849061211b565b909155505060008181526002602052604080822080547fffffffffffffffffffffffff0000000000000000000000000000000000000000166001600160a01b03861690811790915590518392907fddf252ad1be2c89b69c2b068fc378daa952ba7f163c4a11628f55a4df523b3ef908290a45050565b611a1e848484611465565b611a2a84848484611c2c565b610f0f5760405162461bcd60e51b815260206004820152603260248201527f4552433732313a207472616e7366657220746f206e6f6e20455243373231526560448201527f63656976657220696d706c656d656e7465720000000000000000000000000000606482015260840161060b565b606060098054610502906121f6565b606081611aec575060408051808201909152600181527f300000000000000000000000000000000000000000000000000000000000000060208201526104ee565b8160005b8115611b165780611b008161224a565b9150611b0f9050600a83612162565b9150611af0565b60008167ffffffffffffffff811115611b58577f4e487b7100000000000000000000000000000000000000000000000000000000600052604160045260246000fd5b6040519080825280601f01601f191660200182016040528015611b82576020820181803683370190505b5090505b841561145d57611b976001836121b3565b9150611ba4600a866122ab565b611baf90603061211b565b60f81b818381518110611beb577f4e487b7100000000000000000000000000000000000000000000000000000000600052603260045260246000fd5b60200101907effffffffffffffffffffffffffffffffffffffffffffffffffffffffffffff1916908160001a905350611c25600a86612162565b9450611b86565b60006001600160a01b0384163b15611dec576040517f150b7a020000000000000000000000000000000000000000000000000000000081526001600160a01b0385169063150b7a0290611c899033908990889088906004016120cc565b602060405180830381600087803b158015611ca357600080fd5b505af1925050508015611cf1575060408051601f3d9081017fffffffffffffffffffffffffffffffffffffffffffffffffffffffffffffffe0168201909252611cee9181019061201f565b60015b611da1573d808015611d1f576040519150601f19603f3d011682016040523d82523d6000602084013e611d24565b606091505b508051611d995760405162461bcd60e51b815260206004820152603260248201527f4552433732313a207472616e7366657220746f206e6f6e20455243373231526560448201527f63656976657220696d706c656d656e7465720000000000000000000000000000606482015260840161060b565b805181602001fd5b7fffffffff00000000000000000000000000000000000000000000000000000000167f150b7a020000000000000000000000000000000000000000000000000000000014905061145d565b506001949350505050565b80356001600160a01b03811681146104ee57600080fd5b600060208284031215611e1f578081fd5b610ff782611df7565b60008060408385031215611e3a578081fd5b611e4383611df7565b9150611e5160208401611df7565b90509250929050565b600080600060608486031215611e6e578081fd5b611e7784611df7565b9250611e8560208501611df7565b9150604084013590509250925092565b60008060008060808587031215611eaa578081fd5b611eb385611df7565b9350611ec160208601611df7565b925060408501359150606085013567ffffffffffffffff80821115611ee4578283fd5b818701915087601f830112611ef7578283fd5b813581811115611f0957611f0961231d565b604051601f82017fffffffffffffffffffffffffffffffffffffffffffffffffffffffffffffffe0908116603f01168101908382118183101715611f4f57611f4f61231d565b816040528281528a6020848701011115611f67578586fd5b82602086016020830137918201602001949094529598949750929550505050565b60008060408385031215611f9a578182fd5b611fa383611df7565b91506020830135611fb38161234c565b809150509250929050565b60008060408385031215611fd0578182fd5b611fd983611df7565b946020939093013593505050565b600060208284031215611ff8578081fd5b8151610ff78161234c565b600060208284031215612014578081fd5b8135610ff78161235d565b600060208284031215612030578081fd5b8151610ff78161235d565b60006020828403121561204c578081fd5b5035919050565b6000815180845261206b8160208601602086016121ca565b601f017fffffffffffffffffffffffffffffffffffffffffffffffffffffffffffffffe0169290920160200192915050565b600083516120af8184602088016121ca565b8351908301906120c38183602088016121ca565b01949350505050565b60006001600160a01b038087168352808616602084015250836040830152608060608301526120fe6080830184612053565b9695505050505050565b600060208252610ff76020830184612053565b6000821982111561212e5761212e6122bf565b500190565b60006fffffffffffffffffffffffffffffffff80841680612156576121566122ee565b92169190910492915050565b600082612171576121716122ee565b500490565b6000817fffffffffffffffffffffffffffffffffffffffffffffffffffffffffffffffff04831182151516156121ae576121ae6122bf565b500290565b6000828210156121c5576121c56122bf565b500390565b60005b838110156121e55781810151838201526020016121cd565b83811115610f0f5750506000910152565b600181811c9082168061220a57607f821691505b60208210811415612244577f4e487b7100000000000000000000000000000000000000000000000000000000600052602260045260246000fd5b50919050565b60007fffffffffffffffffffffffffffffffffffffffffffffffffffffffffffffffff82141561227c5761227c6122bf565b5060010190565b600067ffffffffffffffff808316818114156122a1576122a16122bf565b6001019392505050565b6000826122ba576122ba6122ee565b500690565b7f4e487b7100000000000000000000000000000000000000000000000000000000600052601160045260246000fd5b7f4e487b7100000000000000000000000000000000000000000000000000000000600052601260045260246000fd5b7f4e487b7100000000000000000000000000000000000000000000000000000000600052604160045260246000fd5b801515811461235a57600080fd5b50565b7fffffffff000000000000000000000000000000000000000000000000000000008116811461235a57600080fdfea2646970667358221220d4e4f7605d48555dbc4e4ef23799c8a617fd101bf29f81d248155d31be86928064736f6c63430008030033",
  "linkReferences": {},
  "deployedLinkReferences": {}
}