{
  "_format": "hh-sol-artifact-1",
  "contractName": "PSI",
  "sourceName": "contracts/PSI.sol",
  "abi": [
    {
      "inputs": [],
      "stateMutability": "nonpayable",
      "type": "constructor"
    },
    {
      "anonymous": false,
      "inputs": [
        {
          "indexed": true,
          "internalType": "address",
          "name": "owner",
          "type": "address"
        },
        {
          "indexed": true,
          "internalType": "address",
          "name": "spender",
          "type": "address"
        },
        {
          "indexed": false,
          "internalType": "uint256",
          "name": "value",
          "type": "uint256"
        }
      ],
      "name": "Approval",
      "type": "event"
    },
    {
      "anonymous": false,
      "inputs": [
        {
          "indexed": true,
          "internalType": "address",
          "name": "from",
          "type": "address"
        },
        {
          "indexed": true,
          "internalType": "address",
          "name": "to",
          "type": "address"
        },
        {
          "indexed": false,
          "internalType": "uint256",
          "name": "value",
          "type": "uint256"
        }
      ],
      "name": "Transfer",
      "type": "event"
    },
    {
      "inputs": [],
      "name": "DEEP_GEMS_CONTRACT",
      "outputs": [
        {
          "internalType": "address",
          "name": "",
          "type": "address"
        }
      ],
      "stateMutability": "view",
      "type": "function"
    },
    {
      "inputs": [
        {
          "internalType": "address",
          "name": "owner",
          "type": "address"
        },
        {
          "internalType": "address",
          "name": "spender",
          "type": "address"
        }
      ],
      "name": "allowance",
      "outputs": [
        {
          "internalType": "uint256",
          "name": "",
          "type": "uint256"
        }
      ],
      "stateMutability": "view",
      "type": "function"
    },
    {
      "inputs": [
        {
          "internalType": "address",
          "name": "spender",
          "type": "address"
        },
        {
          "internalType": "uint256",
          "name": "amount",
          "type": "uint256"
        }
      ],
      "name": "approve",
      "outputs": [
        {
          "internalType": "bool",
          "name": "",
          "type": "bool"
        }
      ],
      "stateMutability": "nonpayable",
      "type": "function"
    },
    {
      "inputs": [
        {
          "internalType": "address",
          "name": "account",
          "type": "address"
        }
      ],
      "name": "balanceOf",
      "outputs": [
        {
          "internalType": "uint256",
          "name": "",
          "type": "uint256"
        }
      ],
      "stateMutability": "view",
      "type": "function"
    },
    {
      "inputs": [
        {
          "internalType": "uint256",
          "name": "tokensToBuy",
          "type": "uint256"
        }
      ],
      "name": "buy",
      "outputs": [],
      "stateMutability": "payable",
      "type": "function"
    },
    {
      "inputs": [],
      "name": "decimals",
      "outputs": [
        {
          "internalType": "uint8",
          "name": "",
          "type": "uint8"
        }
      ],
      "stateMutability": "view",
      "type": "function"
    },
    {
      "inputs": [
        {
          "internalType": "address",
          "name": "spender",
          "type": "address"
        },
        {
          "internalType": "uint256",
          "name": "subtractedValue",
          "type": "uint256"
        }
      ],
      "name": "decreaseAllowance",
      "outputs": [
        {
          "internalType": "bool",
          "name": "",
          "type": "bool"
        }
      ],
      "stateMutability": "nonpayable",
      "type": "function"
    },
    {
      "inputs": [
        {
          "internalType": "address",
          "name": "spender",
          "type": "address"
        },
        {
          "internalType": "uint256",
          "name": "addedValue",
          "type": "uint256"
        }
      ],
      "name": "increaseAllowance",
      "outputs": [
        {
          "internalType": "bool",
          "name": "",
          "type": "bool"
        }
      ],
      "stateMutability": "nonpayable",
      "type": "function"
    },
    {
      "inputs": [
        {
          "internalType": "address",
          "name": "deepGemsContract",
          "type": "address"
        }
      ],
      "name": "initialize",
      "outputs": [],
      "stateMutability": "nonpayable",
      "type": "function"
    },
    {
      "inputs": [],
      "name": "name",
      "outputs": [
        {
          "internalType": "string",
          "name": "",
          "type": "string"
        }
      ],
      "stateMutability": "view",
      "type": "function"
    },
    {
      "inputs": [
        {
          "internalType": "uint256",
          "name": "tokensToBuy",
          "type": "uint256"
        }
      ],
      "name": "quoteBuy",
      "outputs": [
        {
          "internalType": "uint256",
          "name": "",
          "type": "uint256"
        }
      ],
      "stateMutability": "view",
      "type": "function"
    },
    {
      "inputs": [
        {
          "internalType": "uint256",
          "name": "tokensToBuy",
          "type": "uint256"
        },
        {
          "internalType": "uint256",
          "name": "currentPsiSupply",
          "type": "uint256"
        }
      ],
      "name": "quoteBuyRaw",
      "outputs": [
        {
          "internalType": "uint256",
          "name": "",
          "type": "uint256"
        }
      ],
      "stateMutability": "view",
      "type": "function"
    },
    {
      "inputs": [
        {
          "internalType": "uint256",
          "name": "tokensToSell",
          "type": "uint256"
        }
      ],
      "name": "quoteSell",
      "outputs": [
        {
          "internalType": "uint256",
          "name": "",
          "type": "uint256"
        }
      ],
      "stateMutability": "view",
      "type": "function"
    },
    {
      "inputs": [
        {
          "internalType": "uint256",
          "name": "tokensToSell",
          "type": "uint256"
        }
      ],
      "name": "quoteSellRaw",
      "outputs": [
        {
          "internalType": "uint256",
          "name": "",
          "type": "uint256"
        }
      ],
      "stateMutability": "view",
      "type": "function"
    },
    {
      "inputs": [
        {
          "internalType": "uint256",
          "name": "tokensToSell",
          "type": "uint256"
        },
        {
          "internalType": "uint256",
          "name": "minEther",
          "type": "uint256"
        }
      ],
      "name": "sell",
      "outputs": [],
      "stateMutability": "payable",
      "type": "function"
    },
    {
      "inputs": [],
      "name": "symbol",
      "outputs": [
        {
          "internalType": "string",
          "name": "",
          "type": "string"
        }
      ],
      "stateMutability": "view",
      "type": "function"
    },
    {
      "inputs": [],
      "name": "totalSupply",
      "outputs": [
        {
          "internalType": "uint256",
          "name": "",
          "type": "uint256"
        }
      ],
      "stateMutability": "view",
      "type": "function"
    },
    {
      "inputs": [
        {
          "internalType": "address",
          "name": "recipient",
          "type": "address"
        },
        {
          "internalType": "uint256",
          "name": "amount",
          "type": "uint256"
        }
      ],
      "name": "transfer",
      "outputs": [
        {
          "internalType": "bool",
          "name": "",
          "type": "bool"
        }
      ],
      "stateMutability": "nonpayable",
      "type": "function"
    },
    {
      "inputs": [
        {
          "internalType": "address",
          "name": "sender",
          "type": "address"
        },
        {
          "internalType": "address",
          "name": "recipient",
          "type": "address"
        },
        {
          "internalType": "uint256",
          "name": "amount",
          "type": "uint256"
        }
      ],
      "name": "transferFrom",
      "outputs": [
        {
          "internalType": "bool",
          "name": "",
          "type": "bool"
        }
      ],
      "stateMutability": "nonpayable",
      "type": "function"
    },
    {
      "inputs": [
        {
          "internalType": "address",
          "name": "sender",
          "type": "address"
        },
        {
          "internalType": "uint256",
          "name": "amount",
          "type": "uint256"
        }
      ],
      "name": "transferToDeepGems",
      "outputs": [],
      "stateMutability": "nonpayable",
      "type": "function"
    }
  ],
  "bytecode": "0x60806040523480156200001157600080fd5b506040518060400160405280600381526020016250534960e81b8152506040518060400160405280600381526020016250534960e81b8152506509184e72a000828281600390805190602001906200006b92919062000090565b5080516200008190600490602084019062000090565b50505060055550620001739050565b8280546200009e9062000136565b90600052602060002090601f016020900481019282620000c257600085556200010d565b82601f10620000dd57805160ff19168380011785556200010d565b828001600101855582156200010d579182015b828111156200010d578251825591602001919060010190620000f0565b506200011b9291506200011f565b5090565b5b808211156200011b576000815560010162000120565b600181811c908216806200014b57607f821691505b602082108114156200016d57634e487b7160e01b600052602260045260246000fd5b50919050565b61161680620001836000396000f3fe60806040526004361061015f5760003560e01c806395d89b41116100c0578063c4d66de811610074578063d96a094a11610059578063d96a094a146103d9578063dd62ed3e146103ec578063fe9b9ad51461043f5761015f565b8063c4d66de8146103a4578063d79875eb146103c65761015f565b8063a457c2d7116100a5578063a457c2d714610344578063a64190c414610364578063a9059cbb146103845761015f565b806395d89b411461030f578063a14a7a45146103245761015f565b806333bec21f116101175780634beb394c116100fc5780634beb394c1461025a5780634e45899c1461027a57806370a08231146102cc5761015f565b806333bec21f1461021a578063395093511461023a5761015f565b806318160ddd1161014857806318160ddd146101bf57806323b872dd146101de578063313ce567146101fe5761015f565b806306fdde0314610164578063095ea7b31461018f575b600080fd5b34801561017057600080fd5b5061017961045f565b6040516101869190611453565b60405180910390f35b34801561019b57600080fd5b506101af6101aa36600461138b565b6104f1565b6040519015158152602001610186565b3480156101cb57600080fd5b506002545b604051908152602001610186565b3480156101ea57600080fd5b506101af6101f9366004611350565b610507565b34801561020a57600080fd5b5060405160128152602001610186565b34801561022657600080fd5b506101d06102353660046113cc565b6105df565b34801561024657600080fd5b506101af61025536600461138b565b6106c2565b34801561026657600080fd5b506101d06102753660046113b4565b610706565b34801561028657600080fd5b506006546102a79073ffffffffffffffffffffffffffffffffffffffff1681565b60405173ffffffffffffffffffffffffffffffffffffffff9091168152602001610186565b3480156102d857600080fd5b506101d06102e73660046112fd565b73ffffffffffffffffffffffffffffffffffffffff1660009081526020819052604090205490565b34801561031b57600080fd5b5061017961071d565b34801561033057600080fd5b506101d061033f3660046113b4565b61072c565b34801561035057600080fd5b506101af61035f36600461138b565b6107b9565b34801561037057600080fd5b506101d061037f3660046113b4565b610879565b34801561039057600080fd5b506101af61039f36600461138b565b610891565b3480156103b057600080fd5b506103c46103bf3660046112fd565b61089e565b005b6103c46103d43660046113cc565b61094b565b6103c46103e73660046113b4565b6109e7565b3480156103f857600080fd5b506101d061040736600461131e565b73ffffffffffffffffffffffffffffffffffffffff918216600090815260016020908152604080832093909416825291909152205490565b34801561044b57600080fd5b506103c461045a36600461138b565b610a65565b60606003805461046e9061155d565b80601f016020809104026020016040519081016040528092919081815260200182805461049a9061155d565b80156104e75780601f106104bc576101008083540402835291602001916104e7565b820191906000526020600020905b8154815290600101906020018083116104ca57829003601f168201915b5050505050905090565b60006104fe338484610aae565b50600192915050565b6000610514848484610c2e565b73ffffffffffffffffffffffffffffffffffffffff84166000908152600160209081526040808320338452909152902054828110156105c05760405162461bcd60e51b815260206004820152602860248201527f45524332303a207472616e7366657220616d6f756e742065786365656473206160448201527f6c6c6f77616e636500000000000000000000000000000000000000000000000060648201526084015b60405180910390fd5b6105d485336105cf8685611516565b610aae565b506001949350505050565b6000806105ec8484611488565b905061062d6040518060400160405280600e81526020017f6e65772070736920737570706c7900000000000000000000000000000000000081525082610e9d565b600060038461063c81806114d9565b61064691906114d9565b61065091906114a0565b9050600060038361066181806114d9565b61066b91906114d9565b61067591906114a0565b905060006106838383611516565b6005549091506106a26ec097ce7bc90715b34b9f1000000000836114a0565b6106ac91906114a0565b6106b7906001611488565b979650505050505050565b33600081815260016020908152604080832073ffffffffffffffffffffffffffffffffffffffff8716845290915281205490916104fe9185906105cf908690611488565b60006107158261023560025490565b90505b919050565b60606004805461046e9061155d565b60008061073860025490565b905060006107468483611516565b9050600060038361075781806114d9565b61076191906114d9565b61076b91906114a0565b9050600060038361077c81806114d9565b61078691906114d9565b61079091906114a0565b9050600061079e8284611516565b90506106b76ec097ce7bc90715b34b9f1000000000826114a0565b33600090815260016020908152604080832073ffffffffffffffffffffffffffffffffffffffff86168452909152812054828110156108605760405162461bcd60e51b815260206004820152602560248201527f45524332303a2064656372656173656420616c6c6f77616e63652062656c6f7760448201527f207a65726f00000000000000000000000000000000000000000000000000000060648201526084016105b7565b61086f33856105cf8685611516565b5060019392505050565b60006005546108878361072c565b61071591906114a0565b60006104fe338484610c2e565b60065473ffffffffffffffffffffffffffffffffffffffff16156109045760405162461bcd60e51b815260206004820152601360248201527f616c726561647920696e697469616c697a65640000000000000000000000000060448201526064016105b7565b600680547fffffffffffffffffffffffff00000000000000000000000000000000000000001673ffffffffffffffffffffffffffffffffffffffff92909216919091179055565b600061095683610879565b9050818110156109ce5760405162461bcd60e51b815260206004820152603560248201527f4e756d626572206f6620457468657220726563656976656420776f756c64206260448201527f65206c6f776572207468616e206d696e4574686572000000000000000000000060648201526084016105b7565b6109d83384610f2e565b6109e233826110e8565b505050565b60006109f282610706565b905034811115610a445760405162461bcd60e51b815260206004820152601960248201527f446964206e6f742073656e6420656e6f7567682045746865720000000000000060448201526064016105b7565b610a4e33836111b2565b610a6133610a5c8334611516565b6110e8565b5050565b60065473ffffffffffffffffffffffffffffffffffffffff163314610a8957600080fd5b600654610a6190839073ffffffffffffffffffffffffffffffffffffffff1683610c2e565b73ffffffffffffffffffffffffffffffffffffffff8316610b365760405162461bcd60e51b8152602060048201526024808201527f45524332303a20617070726f76652066726f6d20746865207a65726f2061646460448201527f726573730000000000000000000000000000000000000000000000000000000060648201526084016105b7565b73ffffffffffffffffffffffffffffffffffffffff8216610bbf5760405162461bcd60e51b815260206004820152602260248201527f45524332303a20617070726f766520746f20746865207a65726f20616464726560448201527f737300000000000000000000000000000000000000000000000000000000000060648201526084016105b7565b73ffffffffffffffffffffffffffffffffffffffff83811660008181526001602090815260408083209487168084529482529182902085905590518481527f8c5be1e5ebec7d5bd14f71427d1e84f3dd0314c0f7b2291e5b200ac8c7c3b92591015b60405180910390a3505050565b73ffffffffffffffffffffffffffffffffffffffff8316610cb75760405162461bcd60e51b815260206004820152602560248201527f45524332303a207472616e736665722066726f6d20746865207a65726f20616460448201527f647265737300000000000000000000000000000000000000000000000000000060648201526084016105b7565b73ffffffffffffffffffffffffffffffffffffffff8216610d405760405162461bcd60e51b815260206004820152602360248201527f45524332303a207472616e7366657220746f20746865207a65726f206164647260448201527f657373000000000000000000000000000000000000000000000000000000000060648201526084016105b7565b73ffffffffffffffffffffffffffffffffffffffff831660009081526020819052604090205481811015610ddc5760405162461bcd60e51b815260206004820152602660248201527f45524332303a207472616e7366657220616d6f756e742065786365656473206260448201527f616c616e6365000000000000000000000000000000000000000000000000000060648201526084016105b7565b610de68282611516565b73ffffffffffffffffffffffffffffffffffffffff8086166000908152602081905260408082209390935590851681529081208054849290610e29908490611488565b925050819055508273ffffffffffffffffffffffffffffffffffffffff168473ffffffffffffffffffffffffffffffffffffffff167fddf252ad1be2c89b69c2b068fc378daa952ba7f163c4a11628f55a4df523b3ef84604051610e8f91815260200190565b60405180910390a350505050565b610a618282604051602401610eb3929190611466565b604080517fffffffffffffffffffffffffffffffffffffffffffffffffffffffffffffffe08184030181529190526020810180517bffffffffffffffffffffffffffffffffffffffffffffffffffffffff167f9710a9d0000000000000000000000000000000000000000000000000000000001790526112b8565b73ffffffffffffffffffffffffffffffffffffffff8216610fb75760405162461bcd60e51b815260206004820152602160248201527f45524332303a206275726e2066726f6d20746865207a65726f2061646472657360448201527f730000000000000000000000000000000000000000000000000000000000000060648201526084016105b7565b73ffffffffffffffffffffffffffffffffffffffff8216600090815260208190526040902054818110156110535760405162461bcd60e51b815260206004820152602260248201527f45524332303a206275726e20616d6f756e7420657863656564732062616c616e60448201527f636500000000000000000000000000000000000000000000000000000000000060648201526084016105b7565b61105d8282611516565b73ffffffffffffffffffffffffffffffffffffffff841660009081526020819052604081209190915560028054849290611098908490611516565b909155505060405182815260009073ffffffffffffffffffffffffffffffffffffffff8516907fddf252ad1be2c89b69c2b068fc378daa952ba7f163c4a11628f55a4df523b3ef90602001610c21565b6040805160008082526020820190925273ffffffffffffffffffffffffffffffffffffffff841690839060405161111f9190611437565b60006040518083038185875af1925050503d806000811461115c576040519150601f19603f3d011682016040523d82523d6000602084013e611161565b606091505b50509050806109e25760405162461bcd60e51b815260206004820152601360248201527f455448207472616e73666572206661696c65640000000000000000000000000060448201526064016105b7565b73ffffffffffffffffffffffffffffffffffffffff82166112155760405162461bcd60e51b815260206004820152601f60248201527f45524332303a206d696e7420746f20746865207a65726f20616464726573730060448201526064016105b7565b80600260008282546112279190611488565b909155505073ffffffffffffffffffffffffffffffffffffffff821660009081526020819052604081208054839290611261908490611488565b909155505060405181815273ffffffffffffffffffffffffffffffffffffffff8316906000907fddf252ad1be2c89b69c2b068fc378daa952ba7f163c4a11628f55a4df523b3ef9060200160405180910390a35050565b80516a636f6e736f6c652e6c6f67602083016000808483855afa5050505050565b803573ffffffffffffffffffffffffffffffffffffffff8116811461071857600080fd5b60006020828403121561130e578081fd5b611317826112d9565b9392505050565b60008060408385031215611330578081fd5b611339836112d9565b9150611347602084016112d9565b90509250929050565b600080600060608486031215611364578081fd5b61136d846112d9565b925061137b602085016112d9565b9150604084013590509250925092565b6000806040838503121561139d578182fd5b6113a6836112d9565b946020939093013593505050565b6000602082840312156113c5578081fd5b5035919050565b600080604083850312156113de578182fd5b50508035926020909101359150565b6000815180845261140581602086016020860161152d565b601f017fffffffffffffffffffffffffffffffffffffffffffffffffffffffffffffffe0169290920160200192915050565b6000825161144981846020870161152d565b9190910192915050565b60006020825261131760208301846113ed565b60006040825261147960408301856113ed565b90508260208301529392505050565b6000821982111561149b5761149b6115b1565b500190565b6000826114d4577f4e487b710000000000000000000000000000000000000000000000000000000081526012600452602481fd5b500490565b6000817fffffffffffffffffffffffffffffffffffffffffffffffffffffffffffffffff0483118215151615611511576115116115b1565b500290565b600082821015611528576115286115b1565b500390565b60005b83811015611548578181015183820152602001611530565b83811115611557576000848401525b50505050565b600181811c9082168061157157607f821691505b602082108114156115ab577f4e487b7100000000000000000000000000000000000000000000000000000000600052602260045260246000fd5b50919050565b7f4e487b7100000000000000000000000000000000000000000000000000000000600052601160045260246000fdfea264697066735822122058df16f233cf049f22b2dea80d7c0e8f6b243edb945e383683b7d53be43aab9564736f6c63430008030033",
  "linkReferences": {},
  "deployedLinkReferences": {}
}