{
  "_format": "hh-sol-artifact-1",
  "contractName": "PSI",
  "sourceName": "contracts/PSI.sol",
  "abi": [
    {
      "inputs": [],
      "stateMutability": "nonpayable",
      "type": "constructor"
    },
    {
      "anonymous": false,
      "inputs": [
        {
          "indexed": true,
          "internalType": "address",
          "name": "owner",
          "type": "address"
        },
        {
          "indexed": true,
          "internalType": "address",
          "name": "spender",
          "type": "address"
        },
        {
          "indexed": false,
          "internalType": "uint256",
          "name": "value",
          "type": "uint256"
        }
      ],
      "name": "Approval",
      "type": "event"
    },
    {
      "anonymous": false,
      "inputs": [
        {
          "indexed": true,
          "internalType": "address",
          "name": "from",
          "type": "address"
        },
        {
          "indexed": true,
          "internalType": "address",
          "name": "to",
          "type": "address"
        },
        {
          "indexed": false,
          "internalType": "uint256",
          "name": "value",
          "type": "uint256"
        }
      ],
      "name": "Transfer",
      "type": "event"
    },
    {
      "inputs": [],
      "name": "DEEP_GEMS_CONTRACT",
      "outputs": [
        {
          "internalType": "address",
          "name": "",
          "type": "address"
        }
      ],
      "stateMutability": "view",
      "type": "function"
    },
    {
      "inputs": [
        {
          "internalType": "address",
          "name": "owner",
          "type": "address"
        },
        {
          "internalType": "address",
          "name": "spender",
          "type": "address"
        }
      ],
      "name": "allowance",
      "outputs": [
        {
          "internalType": "uint256",
          "name": "",
          "type": "uint256"
        }
      ],
      "stateMutability": "view",
      "type": "function"
    },
    {
      "inputs": [
        {
          "internalType": "address",
          "name": "spender",
          "type": "address"
        },
        {
          "internalType": "uint256",
          "name": "amount",
          "type": "uint256"
        }
      ],
      "name": "approve",
      "outputs": [
        {
          "internalType": "bool",
          "name": "",
          "type": "bool"
        }
      ],
      "stateMutability": "nonpayable",
      "type": "function"
    },
    {
      "inputs": [
        {
          "internalType": "address",
          "name": "account",
          "type": "address"
        }
      ],
      "name": "balanceOf",
      "outputs": [
        {
          "internalType": "uint256",
          "name": "",
          "type": "uint256"
        }
      ],
      "stateMutability": "view",
      "type": "function"
    },
    {
      "inputs": [
        {
          "internalType": "uint256",
          "name": "tokensToBuy",
          "type": "uint256"
        }
      ],
      "name": "buy",
      "outputs": [],
      "stateMutability": "payable",
      "type": "function"
    },
    {
      "inputs": [],
      "name": "decimals",
      "outputs": [
        {
          "internalType": "uint8",
          "name": "",
          "type": "uint8"
        }
      ],
      "stateMutability": "view",
      "type": "function"
    },
    {
      "inputs": [
        {
          "internalType": "address",
          "name": "spender",
          "type": "address"
        },
        {
          "internalType": "uint256",
          "name": "subtractedValue",
          "type": "uint256"
        }
      ],
      "name": "decreaseAllowance",
      "outputs": [
        {
          "internalType": "bool",
          "name": "",
          "type": "bool"
        }
      ],
      "stateMutability": "nonpayable",
      "type": "function"
    },
    {
      "inputs": [
        {
          "internalType": "address",
          "name": "spender",
          "type": "address"
        },
        {
          "internalType": "uint256",
          "name": "addedValue",
          "type": "uint256"
        }
      ],
      "name": "increaseAllowance",
      "outputs": [
        {
          "internalType": "bool",
          "name": "",
          "type": "bool"
        }
      ],
      "stateMutability": "nonpayable",
      "type": "function"
    },
    {
      "inputs": [
        {
          "internalType": "address",
          "name": "deepGemsContract",
          "type": "address"
        }
      ],
      "name": "initialize",
      "outputs": [],
      "stateMutability": "nonpayable",
      "type": "function"
    },
    {
      "inputs": [],
      "name": "name",
      "outputs": [
        {
          "internalType": "string",
          "name": "",
          "type": "string"
        }
      ],
      "stateMutability": "view",
      "type": "function"
    },
    {
      "inputs": [
        {
          "internalType": "uint256",
          "name": "tokensToBuy",
          "type": "uint256"
        }
      ],
      "name": "quoteBuy",
      "outputs": [
        {
          "internalType": "uint256",
          "name": "",
          "type": "uint256"
        }
      ],
      "stateMutability": "view",
      "type": "function"
    },
    {
      "inputs": [
        {
          "internalType": "uint256",
          "name": "tokensToBuy",
          "type": "uint256"
        }
      ],
      "name": "quoteBuyRaw",
      "outputs": [
        {
          "internalType": "uint256",
          "name": "",
          "type": "uint256"
        }
      ],
      "stateMutability": "view",
      "type": "function"
    },
    {
      "inputs": [
        {
          "internalType": "uint256",
          "name": "tokensToSell",
          "type": "uint256"
        }
      ],
      "name": "quoteSell",
      "outputs": [
        {
          "internalType": "uint256",
          "name": "",
          "type": "uint256"
        }
      ],
      "stateMutability": "view",
      "type": "function"
    },
    {
      "inputs": [
        {
          "internalType": "uint256",
          "name": "tokensToSell",
          "type": "uint256"
        }
      ],
      "name": "quoteSellRaw",
      "outputs": [
        {
          "internalType": "uint256",
          "name": "",
          "type": "uint256"
        }
      ],
      "stateMutability": "view",
      "type": "function"
    },
    {
      "inputs": [
        {
          "internalType": "uint256",
          "name": "tokensToSell",
          "type": "uint256"
        },
        {
          "internalType": "uint256",
          "name": "minEther",
          "type": "uint256"
        }
      ],
      "name": "sell",
      "outputs": [],
      "stateMutability": "payable",
      "type": "function"
    },
    {
      "inputs": [],
      "name": "symbol",
      "outputs": [
        {
          "internalType": "string",
          "name": "",
          "type": "string"
        }
      ],
      "stateMutability": "view",
      "type": "function"
    },
    {
      "inputs": [],
      "name": "totalSupply",
      "outputs": [
        {
          "internalType": "uint256",
          "name": "",
          "type": "uint256"
        }
      ],
      "stateMutability": "view",
      "type": "function"
    },
    {
      "inputs": [
        {
          "internalType": "address",
          "name": "recipient",
          "type": "address"
        },
        {
          "internalType": "uint256",
          "name": "amount",
          "type": "uint256"
        }
      ],
      "name": "transfer",
      "outputs": [
        {
          "internalType": "bool",
          "name": "",
          "type": "bool"
        }
      ],
      "stateMutability": "nonpayable",
      "type": "function"
    },
    {
      "inputs": [
        {
          "internalType": "address",
          "name": "sender",
          "type": "address"
        },
        {
          "internalType": "address",
          "name": "recipient",
          "type": "address"
        },
        {
          "internalType": "uint256",
          "name": "amount",
          "type": "uint256"
        }
      ],
      "name": "transferFrom",
      "outputs": [
        {
          "internalType": "bool",
          "name": "",
          "type": "bool"
        }
      ],
      "stateMutability": "nonpayable",
      "type": "function"
    },
    {
      "inputs": [
        {
          "internalType": "address",
          "name": "sender",
          "type": "address"
        },
        {
          "internalType": "uint256",
          "name": "amount",
          "type": "uint256"
        }
      ],
      "name": "transferToDeepGems",
      "outputs": [],
      "stateMutability": "nonpayable",
      "type": "function"
    }
  ],
  "bytecode": "0x60806040523480156200001157600080fd5b506040518060400160405280600381526020016250534960e81b8152506040518060400160405280600381526020016250534960e81b8152506402540be400828281600390805190602001906200006a9291906200008f565b508051620000809060049060208401906200008f565b50505060055550620001729050565b8280546200009d9062000135565b90600052602060002090601f016020900481019282620000c157600085556200010c565b82601f10620000dc57805160ff19168380011785556200010c565b828001600101855582156200010c579182015b828111156200010c578251825591602001919060010190620000ef565b506200011a9291506200011e565b5090565b5b808211156200011a57600081556001016200011f565b600181811c908216806200014a57607f821691505b602082108114156200016c57634e487b7160e01b600052602260045260246000fd5b50919050565b6114b180620001826000396000f3fe60806040526004361061015f5760003560e01c8063a14a7a45116100c0578063d79875eb11610074578063dd62ed3e11610059578063dd62ed3e146103cc578063fac5dec41461041f578063fe9b9ad51461043f5761015f565b8063d79875eb146103a6578063d96a094a146103b95761015f565b8063a64190c4116100a5578063a64190c414610344578063a9059cbb14610364578063c4d66de8146103845761015f565b8063a14a7a4514610304578063a457c2d7146103245761015f565b806339509351116101175780634e45899c116100fc5780634e45899c1461025a57806370a08231146102ac57806395d89b41146102ef5761015f565b8063395093511461021a5780634beb394c1461023a5761015f565b806318160ddd1161014857806318160ddd146101bf57806323b872dd146101de578063313ce567146101fe5761015f565b806306fdde0314610164578063095ea7b31461018f575b600080fd5b34801561017057600080fd5b5061017961045f565b60405161018691906112d2565b60405180910390f35b34801561019b57600080fd5b506101af6101aa366004611254565b6104f1565b6040519015158152602001610186565b3480156101cb57600080fd5b506002545b604051908152602001610186565b3480156101ea57600080fd5b506101af6101f9366004611219565b610507565b34801561020a57600080fd5b5060405160128152602001610186565b34801561022657600080fd5b506101af610235366004611254565b6105df565b34801561024657600080fd5b506101d061025536600461127d565b610623565b34801561026657600080fd5b506006546102879073ffffffffffffffffffffffffffffffffffffffff1681565b60405173ffffffffffffffffffffffffffffffffffffffff9091168152602001610186565b3480156102b857600080fd5b506101d06102c73660046111c6565b73ffffffffffffffffffffffffffffffffffffffff1660009081526020819052604090205490565b3480156102fb57600080fd5b5061017961064e565b34801561031057600080fd5b506101d061031f36600461127d565b61065d565b34801561033057600080fd5b506101af61033f366004611254565b6106d8565b34801561035057600080fd5b506101d061035f36600461127d565b610798565b34801561037057600080fd5b506101af61037f366004611254565b6107b0565b34801561039057600080fd5b506103a461039f3660046111c6565b6107bd565b005b6103a46103b4366004611295565b61086a565b6103a46103c736600461127d565b610906565b3480156103d857600080fd5b506101d06103e73660046111e7565b73ffffffffffffffffffffffffffffffffffffffff918216600090815260016020908152604080832093909416825291909152205490565b34801561042b57600080fd5b506101d061043a36600461127d565b610984565b34801561044b57600080fd5b506103a461045a366004611254565b6109e0565b60606003805461046e906113f8565b80601f016020809104026020016040519081016040528092919081815260200182805461049a906113f8565b80156104e75780601f106104bc576101008083540402835291602001916104e7565b820191906000526020600020905b8154815290600101906020018083116104ca57829003601f168201915b5050505050905090565b60006104fe338484610a29565b50600192915050565b6000610514848484610ba9565b73ffffffffffffffffffffffffffffffffffffffff84166000908152600160209081526040808320338452909152902054828110156105c05760405162461bcd60e51b815260206004820152602860248201527f45524332303a207472616e7366657220616d6f756e742065786365656473206160448201527f6c6c6f77616e636500000000000000000000000000000000000000000000000060648201526084015b60405180910390fd5b6105d485336105cf86856113b1565b610a29565b506001949350505050565b33600081815260016020908152604080832073ffffffffffffffffffffffffffffffffffffffff8716845290915281205490916104fe9185906105cf908690611323565b600060055461063183610984565b61063b919061133b565b610646906001611323565b90505b919050565b60606004805461046e906113f8565b60008061066960025490565b9050600061067784836113b1565b9050600060026106878480611374565b610691919061133b565b9050600060026106a18480611374565b6106ab919061133b565b905060006106b982846113b1565b90506106cd670de0b6b3a76400008261133b565b979650505050505050565b33600090815260016020908152604080832073ffffffffffffffffffffffffffffffffffffffff861684529091528120548281101561077f5760405162461bcd60e51b815260206004820152602560248201527f45524332303a2064656372656173656420616c6c6f77616e63652062656c6f7760448201527f207a65726f00000000000000000000000000000000000000000000000000000060648201526084016105b7565b61078e33856105cf86856113b1565b5060019392505050565b60006005546107a68361065d565b610646919061133b565b60006104fe338484610ba9565b60065473ffffffffffffffffffffffffffffffffffffffff16156108235760405162461bcd60e51b815260206004820152601360248201527f616c726561647920696e697469616c697a65640000000000000000000000000060448201526064016105b7565b600680547fffffffffffffffffffffffff00000000000000000000000000000000000000001673ffffffffffffffffffffffffffffffffffffffff92909216919091179055565b600061087583610798565b9050818110156108ed5760405162461bcd60e51b815260206004820152603560248201527f4e756d626572206f6620457468657220726563656976656420776f756c64206260448201527f65206c6f776572207468616e206d696e4574686572000000000000000000000060648201526084016105b7565b6108f73384610e18565b6109013382610fd2565b505050565b600061091182610623565b9050348111156109635760405162461bcd60e51b815260206004820152601960248201527f446964206e6f742073656e6420656e6f7567682045746865720000000000000060448201526064016105b7565b61096d338361109c565b6109803361097b83346113b1565b610fd2565b5050565b60008061099060025490565b9050600061099e8483611323565b9050600060026109ae8480611374565b6109b8919061133b565b9050600060026109c88480611374565b6109d2919061133b565b905060006106b983836113b1565b60065473ffffffffffffffffffffffffffffffffffffffff163314610a0457600080fd5b60065461098090839073ffffffffffffffffffffffffffffffffffffffff1683610ba9565b73ffffffffffffffffffffffffffffffffffffffff8316610ab15760405162461bcd60e51b8152602060048201526024808201527f45524332303a20617070726f76652066726f6d20746865207a65726f2061646460448201527f726573730000000000000000000000000000000000000000000000000000000060648201526084016105b7565b73ffffffffffffffffffffffffffffffffffffffff8216610b3a5760405162461bcd60e51b815260206004820152602260248201527f45524332303a20617070726f766520746f20746865207a65726f20616464726560448201527f737300000000000000000000000000000000000000000000000000000000000060648201526084016105b7565b73ffffffffffffffffffffffffffffffffffffffff83811660008181526001602090815260408083209487168084529482529182902085905590518481527f8c5be1e5ebec7d5bd14f71427d1e84f3dd0314c0f7b2291e5b200ac8c7c3b92591015b60405180910390a3505050565b73ffffffffffffffffffffffffffffffffffffffff8316610c325760405162461bcd60e51b815260206004820152602560248201527f45524332303a207472616e736665722066726f6d20746865207a65726f20616460448201527f647265737300000000000000000000000000000000000000000000000000000060648201526084016105b7565b73ffffffffffffffffffffffffffffffffffffffff8216610cbb5760405162461bcd60e51b815260206004820152602360248201527f45524332303a207472616e7366657220746f20746865207a65726f206164647260448201527f657373000000000000000000000000000000000000000000000000000000000060648201526084016105b7565b73ffffffffffffffffffffffffffffffffffffffff831660009081526020819052604090205481811015610d575760405162461bcd60e51b815260206004820152602660248201527f45524332303a207472616e7366657220616d6f756e742065786365656473206260448201527f616c616e6365000000000000000000000000000000000000000000000000000060648201526084016105b7565b610d6182826113b1565b73ffffffffffffffffffffffffffffffffffffffff8086166000908152602081905260408082209390935590851681529081208054849290610da4908490611323565b925050819055508273ffffffffffffffffffffffffffffffffffffffff168473ffffffffffffffffffffffffffffffffffffffff167fddf252ad1be2c89b69c2b068fc378daa952ba7f163c4a11628f55a4df523b3ef84604051610e0a91815260200190565b60405180910390a350505050565b73ffffffffffffffffffffffffffffffffffffffff8216610ea15760405162461bcd60e51b815260206004820152602160248201527f45524332303a206275726e2066726f6d20746865207a65726f2061646472657360448201527f730000000000000000000000000000000000000000000000000000000000000060648201526084016105b7565b73ffffffffffffffffffffffffffffffffffffffff821660009081526020819052604090205481811015610f3d5760405162461bcd60e51b815260206004820152602260248201527f45524332303a206275726e20616d6f756e7420657863656564732062616c616e60448201527f636500000000000000000000000000000000000000000000000000000000000060648201526084016105b7565b610f4782826113b1565b73ffffffffffffffffffffffffffffffffffffffff841660009081526020819052604081209190915560028054849290610f829084906113b1565b909155505060405182815260009073ffffffffffffffffffffffffffffffffffffffff8516907fddf252ad1be2c89b69c2b068fc378daa952ba7f163c4a11628f55a4df523b3ef90602001610b9c565b6040805160008082526020820190925273ffffffffffffffffffffffffffffffffffffffff841690839060405161100991906112b6565b60006040518083038185875af1925050503d8060008114611046576040519150601f19603f3d011682016040523d82523d6000602084013e61104b565b606091505b50509050806109015760405162461bcd60e51b815260206004820152601360248201527f455448207472616e73666572206661696c65640000000000000000000000000060448201526064016105b7565b73ffffffffffffffffffffffffffffffffffffffff82166110ff5760405162461bcd60e51b815260206004820152601f60248201527f45524332303a206d696e7420746f20746865207a65726f20616464726573730060448201526064016105b7565b80600260008282546111119190611323565b909155505073ffffffffffffffffffffffffffffffffffffffff82166000908152602081905260408120805483929061114b908490611323565b909155505060405181815273ffffffffffffffffffffffffffffffffffffffff8316906000907fddf252ad1be2c89b69c2b068fc378daa952ba7f163c4a11628f55a4df523b3ef9060200160405180910390a35050565b803573ffffffffffffffffffffffffffffffffffffffff8116811461064957600080fd5b6000602082840312156111d7578081fd5b6111e0826111a2565b9392505050565b600080604083850312156111f9578081fd5b611202836111a2565b9150611210602084016111a2565b90509250929050565b60008060006060848603121561122d578081fd5b611236846111a2565b9250611244602085016111a2565b9150604084013590509250925092565b60008060408385031215611266578182fd5b61126f836111a2565b946020939093013593505050565b60006020828403121561128e578081fd5b5035919050565b600080604083850312156112a7578182fd5b50508035926020909101359150565b600082516112c88184602087016113c8565b9190910192915050565b60006020825282518060208401526112f18160408501602087016113c8565b601f017fffffffffffffffffffffffffffffffffffffffffffffffffffffffffffffffe0169190910160400192915050565b600082198211156113365761133661144c565b500190565b60008261136f577f4e487b710000000000000000000000000000000000000000000000000000000081526012600452602481fd5b500490565b6000817fffffffffffffffffffffffffffffffffffffffffffffffffffffffffffffffff04831182151516156113ac576113ac61144c565b500290565b6000828210156113c3576113c361144c565b500390565b60005b838110156113e35781810151838201526020016113cb565b838111156113f2576000848401525b50505050565b600181811c9082168061140c57607f821691505b60208210811415611446577f4e487b7100000000000000000000000000000000000000000000000000000000600052602260045260246000fd5b50919050565b7f4e487b7100000000000000000000000000000000000000000000000000000000600052601160045260246000fdfea26469706673582212206ab01912a48f1ec6a7f1c3fbec39e6976c4f9f002c73e48dc459a15e512b149d64736f6c63430008030033",
  "linkReferences": {},
  "deployedLinkReferences": {}
}