{
  "_format": "hh-sol-artifact-1",
  "contractName": "PSI",
  "sourceName": "contracts/PSI.sol",
  "abi": [
    {
      "inputs": [],
      "stateMutability": "nonpayable",
      "type": "constructor"
    },
    {
      "anonymous": false,
      "inputs": [
        {
          "indexed": true,
          "internalType": "address",
          "name": "owner",
          "type": "address"
        },
        {
          "indexed": true,
          "internalType": "address",
          "name": "spender",
          "type": "address"
        },
        {
          "indexed": false,
          "internalType": "uint256",
          "name": "value",
          "type": "uint256"
        }
      ],
      "name": "Approval",
      "type": "event"
    },
    {
      "anonymous": false,
      "inputs": [
        {
          "indexed": true,
          "internalType": "address",
          "name": "from",
          "type": "address"
        },
        {
          "indexed": true,
          "internalType": "address",
          "name": "to",
          "type": "address"
        },
        {
          "indexed": false,
          "internalType": "uint256",
          "name": "value",
          "type": "uint256"
        }
      ],
      "name": "Transfer",
      "type": "event"
    },
    {
      "inputs": [],
      "name": "DEEP_GEMS_CONTRACT",
      "outputs": [
        {
          "internalType": "address",
          "name": "",
          "type": "address"
        }
      ],
      "stateMutability": "view",
      "type": "function"
    },
    {
      "inputs": [],
      "name": "PRICE_CLIFF",
      "outputs": [
        {
          "internalType": "uint256",
          "name": "",
          "type": "uint256"
        }
      ],
      "stateMutability": "view",
      "type": "function"
    },
    {
      "inputs": [],
      "name": "SUPPLY_CAP",
      "outputs": [
        {
          "internalType": "uint256",
          "name": "",
          "type": "uint256"
        }
      ],
      "stateMutability": "view",
      "type": "function"
    },
    {
      "inputs": [
        {
          "internalType": "address",
          "name": "owner",
          "type": "address"
        },
        {
          "internalType": "address",
          "name": "spender",
          "type": "address"
        }
      ],
      "name": "allowance",
      "outputs": [
        {
          "internalType": "uint256",
          "name": "",
          "type": "uint256"
        }
      ],
      "stateMutability": "view",
      "type": "function"
    },
    {
      "inputs": [
        {
          "internalType": "address",
          "name": "spender",
          "type": "address"
        },
        {
          "internalType": "uint256",
          "name": "amount",
          "type": "uint256"
        }
      ],
      "name": "approve",
      "outputs": [
        {
          "internalType": "bool",
          "name": "",
          "type": "bool"
        }
      ],
      "stateMutability": "nonpayable",
      "type": "function"
    },
    {
      "inputs": [
        {
          "internalType": "address",
          "name": "account",
          "type": "address"
        }
      ],
      "name": "balanceOf",
      "outputs": [
        {
          "internalType": "uint256",
          "name": "",
          "type": "uint256"
        }
      ],
      "stateMutability": "view",
      "type": "function"
    },
    {
      "inputs": [
        {
          "internalType": "uint256",
          "name": "tokensToBuy",
          "type": "uint256"
        }
      ],
      "name": "buy",
      "outputs": [],
      "stateMutability": "payable",
      "type": "function"
    },
    {
      "inputs": [],
      "name": "decimals",
      "outputs": [
        {
          "internalType": "uint8",
          "name": "",
          "type": "uint8"
        }
      ],
      "stateMutability": "view",
      "type": "function"
    },
    {
      "inputs": [
        {
          "internalType": "address",
          "name": "spender",
          "type": "address"
        },
        {
          "internalType": "uint256",
          "name": "subtractedValue",
          "type": "uint256"
        }
      ],
      "name": "decreaseAllowance",
      "outputs": [
        {
          "internalType": "bool",
          "name": "",
          "type": "bool"
        }
      ],
      "stateMutability": "nonpayable",
      "type": "function"
    },
    {
      "inputs": [
        {
          "internalType": "address",
          "name": "spender",
          "type": "address"
        },
        {
          "internalType": "uint256",
          "name": "addedValue",
          "type": "uint256"
        }
      ],
      "name": "increaseAllowance",
      "outputs": [
        {
          "internalType": "bool",
          "name": "",
          "type": "bool"
        }
      ],
      "stateMutability": "nonpayable",
      "type": "function"
    },
    {
      "inputs": [
        {
          "internalType": "address",
          "name": "deepGemsContract",
          "type": "address"
        }
      ],
      "name": "initialize",
      "outputs": [],
      "stateMutability": "nonpayable",
      "type": "function"
    },
    {
      "inputs": [],
      "name": "name",
      "outputs": [
        {
          "internalType": "string",
          "name": "",
          "type": "string"
        }
      ],
      "stateMutability": "view",
      "type": "function"
    },
    {
      "inputs": [
        {
          "internalType": "uint256",
          "name": "tokensToBuy",
          "type": "uint256"
        }
      ],
      "name": "quoteBuy",
      "outputs": [
        {
          "internalType": "uint256",
          "name": "",
          "type": "uint256"
        }
      ],
      "stateMutability": "view",
      "type": "function"
    },
    {
      "inputs": [
        {
          "internalType": "uint256",
          "name": "tokensToBuy",
          "type": "uint256"
        },
        {
          "internalType": "uint256",
          "name": "currentPsiSupply",
          "type": "uint256"
        }
      ],
      "name": "quoteBuyRaw",
      "outputs": [
        {
          "internalType": "uint256",
          "name": "",
          "type": "uint256"
        }
      ],
      "stateMutability": "view",
      "type": "function"
    },
    {
      "inputs": [
        {
          "internalType": "uint256",
          "name": "tokensToSell",
          "type": "uint256"
        }
      ],
      "name": "quoteSell",
      "outputs": [
        {
          "internalType": "uint256",
          "name": "",
          "type": "uint256"
        }
      ],
      "stateMutability": "view",
      "type": "function"
    },
    {
      "inputs": [
        {
          "internalType": "uint256",
          "name": "tokensToSell",
          "type": "uint256"
        },
        {
          "internalType": "uint256",
          "name": "currentPsiSupply",
          "type": "uint256"
        }
      ],
      "name": "quoteSellRaw",
      "outputs": [
        {
          "internalType": "uint256",
          "name": "",
          "type": "uint256"
        }
      ],
      "stateMutability": "view",
      "type": "function"
    },
    {
      "inputs": [
        {
          "internalType": "uint256",
          "name": "tokensToSell",
          "type": "uint256"
        },
        {
          "internalType": "uint256",
          "name": "minEther",
          "type": "uint256"
        }
      ],
      "name": "sell",
      "outputs": [],
      "stateMutability": "payable",
      "type": "function"
    },
    {
      "inputs": [],
      "name": "symbol",
      "outputs": [
        {
          "internalType": "string",
          "name": "",
          "type": "string"
        }
      ],
      "stateMutability": "view",
      "type": "function"
    },
    {
      "inputs": [],
      "name": "totalSupply",
      "outputs": [
        {
          "internalType": "uint256",
          "name": "",
          "type": "uint256"
        }
      ],
      "stateMutability": "view",
      "type": "function"
    },
    {
      "inputs": [
        {
          "internalType": "address",
          "name": "recipient",
          "type": "address"
        },
        {
          "internalType": "uint256",
          "name": "amount",
          "type": "uint256"
        }
      ],
      "name": "transfer",
      "outputs": [
        {
          "internalType": "bool",
          "name": "",
          "type": "bool"
        }
      ],
      "stateMutability": "nonpayable",
      "type": "function"
    },
    {
      "inputs": [
        {
          "internalType": "address",
          "name": "sender",
          "type": "address"
        },
        {
          "internalType": "address",
          "name": "recipient",
          "type": "address"
        },
        {
          "internalType": "uint256",
          "name": "amount",
          "type": "uint256"
        }
      ],
      "name": "transferFrom",
      "outputs": [
        {
          "internalType": "bool",
          "name": "",
          "type": "bool"
        }
      ],
      "stateMutability": "nonpayable",
      "type": "function"
    },
    {
      "inputs": [
        {
          "internalType": "address",
          "name": "sender",
          "type": "address"
        },
        {
          "internalType": "uint256",
          "name": "amount",
          "type": "uint256"
        }
      ],
      "name": "transferToDeepGems",
      "outputs": [],
      "stateMutability": "nonpayable",
      "type": "function"
    }
  ],
  "bytecode": "0x60806040523480156200001157600080fd5b506040518060400160405280600381526020016250534960e81b8152506040518060400160405280600381526020016250534960e81b81525064e8d4a510006969e10de76676d080000069152d02c7e14af68000008484816003908051906020019062000080929190620000de565b50805162000096906004906020840190620000de565b505050600883905560058290556006819055600381620000b78180620001a5565b620000c39190620001a5565b620000cf919062000184565b600755506200020e9350505050565b828054620000ec90620001d1565b90600052602060002090601f0160209004810192826200011057600085556200015b565b82601f106200012b57805160ff19168380011785556200015b565b828001600101855582156200015b579182015b828111156200015b5782518255916020019190600101906200013e565b50620001699291506200016d565b5090565b5b808211156200016957600081556001016200016e565b600082620001a057634e487b7160e01b81526012600452602481fd5b500490565b6000816000190483118215151615620001cc57634e487b7160e01b81526011600452602481fd5b500290565b600181811c90821680620001e657607f821691505b602082108114156200020857634e487b7160e01b600052602260045260246000fd5b50919050565b611640806200021e6000396000f3fe6080604052600436106101755760003560e01c806370a08231116100cb578063c4d66de81161007f578063dd62ed3e11610059578063dd62ed3e1461041c578063eecc17af1461046f578063fe9b9ad51461048557610175565b8063c4d66de8146103d4578063d79875eb146103f6578063d96a094a1461040957610175565b8063a457c2d7116100b0578063a457c2d714610374578063a64190c414610394578063a9059cbb146103b457610175565b806370a082311461031c57806395d89b411461035f57610175565b806323b872dd1161012d5780633950935111610107578063395093511461028a5780634beb394c146102aa5780634e45899c146102ca57610175565b806323b872dd1461022e578063313ce5671461024e57806333bec21f1461026a57610175565b80630b6494ad1161015e5780630b6494ad146101d55780630cfccc831461020357806318160ddd1461021957610175565b806306fdde031461017a578063095ea7b3146101a5575b600080fd5b34801561018657600080fd5b5061018f6104a5565b60405161019c9190611461565b60405180910390f35b3480156101b157600080fd5b506101c56101c03660046113e3565b610537565b604051901515815260200161019c565b3480156101e157600080fd5b506101f56101f0366004611424565b61054d565b60405190815260200161019c565b34801561020f57600080fd5b506101f560055481565b34801561022557600080fd5b506002546101f5565b34801561023a57600080fd5b506101c56102493660046113a8565b6105f1565b34801561025a57600080fd5b506040516012815260200161019c565b34801561027657600080fd5b506101f5610285366004611424565b6106c9565b34801561029657600080fd5b506101c56102a53660046113e3565b610768565b3480156102b657600080fd5b506101f56102c536600461140c565b6107ac565b3480156102d657600080fd5b506009546102f79073ffffffffffffffffffffffffffffffffffffffff1681565b60405173ffffffffffffffffffffffffffffffffffffffff909116815260200161019c565b34801561032857600080fd5b506101f561033736600461135c565b73ffffffffffffffffffffffffffffffffffffffff1660009081526020819052604090205490565b34801561036b57600080fd5b5061018f6107cd565b34801561038057600080fd5b506101c561038f3660046113e3565b6107dc565b3480156103a057600080fd5b506101f56103af36600461140c565b61089c565b3480156103c057600080fd5b506101c56103cf3660046113e3565b6108b4565b3480156103e057600080fd5b506103f46103ef36600461135c565b6108c1565b005b6103f4610404366004611424565b61096e565b6103f461041736600461140c565b610a0e565b34801561042857600080fd5b506101f5610437366004611376565b73ffffffffffffffffffffffffffffffffffffffff918216600090815260016020908152604080832093909416825291909152205490565b34801561047b57600080fd5b506101f560065481565b34801561049157600080fd5b506103f46104a03660046113e3565b610b3e565b6060600380546104b490611587565b80601f01602080910402602001604051908101604052809291908181526020018280546104e090611587565b801561052d5780601f106105025761010080835404028352916020019161052d565b820191906000526020600020905b81548152906001019060200180831161051057829003601f168201915b5050505050905090565b6000610544338484610b8b565b50600192915050565b60008061055a8484611540565b9050600060038461056b8180611503565b6105759190611503565b61057f91906114ca565b905060006003836105908180611503565b61059a9190611503565b6105a491906114ca565b905060006105bd836105b884600754610d0b565b610d24565b6008549091506105dc6ec097ce7bc90715b34b9f1000000000836114ca565b6105e691906114ca565b979650505050505050565b60006105fe848484610d3f565b73ffffffffffffffffffffffffffffffffffffffff84166000908152600160209081526040808320338452909152902054828110156106aa5760405162461bcd60e51b815260206004820152602860248201527f45524332303a207472616e7366657220616d6f756e742065786365656473206160448201527f6c6c6f77616e636500000000000000000000000000000000000000000000000060648201526084015b60405180910390fd5b6106be85336106b98685611540565b610b8b565b506001949350505050565b6000806106d684846114b2565b905060006003846106e78180611503565b6106f19190611503565b6106fb91906114ca565b9050600060038361070c8180611503565b6107169190611503565b61072091906114ca565b90506000610734826105b885600754610d0b565b6008549091506107536ec097ce7bc90715b34b9f1000000000836114ca565b61075d91906114ca565b6105e69060016114b2565b33600081815260016020908152604080832073ffffffffffffffffffffffffffffffffffffffff8716845290915281205490916105449185906106b99086906114b2565b6000806107b860025490565b90506107c483826106c9565b9150505b919050565b6060600480546104b490611587565b33600090815260016020908152604080832073ffffffffffffffffffffffffffffffffffffffff86168452909152812054828110156108835760405162461bcd60e51b815260206004820152602560248201527f45524332303a2064656372656173656420616c6c6f77616e63652062656c6f7760448201527f207a65726f00000000000000000000000000000000000000000000000000000060648201526084016106a1565b61089233856106b98685611540565b5060019392505050565b6000806108a860025490565b90506107c4838261054d565b6000610544338484610d3f565b60095473ffffffffffffffffffffffffffffffffffffffff16156109275760405162461bcd60e51b815260206004820152601360248201527f616c726561647920696e697469616c697a65640000000000000000000000000060448201526064016106a1565b600980547fffffffffffffffffffffffff00000000000000000000000000000000000000001673ffffffffffffffffffffffffffffffffffffffff92909216919091179055565b600061097d836101f060025490565b9050818110156109f55760405162461bcd60e51b815260206004820152603560248201527f4e756d626572206f6620457468657220726563656976656420776f756c64206260448201527f65206c6f776572207468616e206d696e4574686572000000000000000000000060648201526084016106a1565b6109ff3384610fae565b610a093382611168565b505050565b6000610a1960025490565b600554909150610a2983836114b2565b1115610ac35760405162461bcd60e51b815260206004820152604160248201527f537570706c79206361702065786365656465642c206e6f206d6f726520746f6b60448201527f656e732063616e20626520626f756768742066726f6d2074686520637572766560648201527f2e00000000000000000000000000000000000000000000000000000000000000608482015260a4016106a1565b6000610acf83836106c9565b905034811115610b215760405162461bcd60e51b815260206004820152601960248201527f446964206e6f742073656e6420656e6f7567682045746865720000000000000060448201526064016106a1565b610b2b3384611232565b610a0933610b398334611540565b611168565b60095473ffffffffffffffffffffffffffffffffffffffff163314610b6257600080fd5b600954610b8790839073ffffffffffffffffffffffffffffffffffffffff1683610d3f565b5050565b73ffffffffffffffffffffffffffffffffffffffff8316610c135760405162461bcd60e51b8152602060048201526024808201527f45524332303a20617070726f76652066726f6d20746865207a65726f2061646460448201527f726573730000000000000000000000000000000000000000000000000000000060648201526084016106a1565b73ffffffffffffffffffffffffffffffffffffffff8216610c9c5760405162461bcd60e51b815260206004820152602260248201527f45524332303a20617070726f766520746f20746865207a65726f20616464726560448201527f737300000000000000000000000000000000000000000000000000000000000060648201526084016106a1565b73ffffffffffffffffffffffffffffffffffffffff83811660008181526001602090815260408083209487168084529482529182902085905590518481527f8c5be1e5ebec7d5bd14f71427d1e84f3dd0314c0f7b2291e5b200ac8c7c3b92591015b60405180910390a3505050565b600081831015610d1b5781610d1d565b825b9392505050565b600081831015610d35576000610d1d565b610d1d8284611540565b73ffffffffffffffffffffffffffffffffffffffff8316610dc85760405162461bcd60e51b815260206004820152602560248201527f45524332303a207472616e736665722066726f6d20746865207a65726f20616460448201527f647265737300000000000000000000000000000000000000000000000000000060648201526084016106a1565b73ffffffffffffffffffffffffffffffffffffffff8216610e515760405162461bcd60e51b815260206004820152602360248201527f45524332303a207472616e7366657220746f20746865207a65726f206164647260448201527f657373000000000000000000000000000000000000000000000000000000000060648201526084016106a1565b73ffffffffffffffffffffffffffffffffffffffff831660009081526020819052604090205481811015610eed5760405162461bcd60e51b815260206004820152602660248201527f45524332303a207472616e7366657220616d6f756e742065786365656473206260448201527f616c616e6365000000000000000000000000000000000000000000000000000060648201526084016106a1565b610ef78282611540565b73ffffffffffffffffffffffffffffffffffffffff8086166000908152602081905260408082209390935590851681529081208054849290610f3a9084906114b2565b925050819055508273ffffffffffffffffffffffffffffffffffffffff168473ffffffffffffffffffffffffffffffffffffffff167fddf252ad1be2c89b69c2b068fc378daa952ba7f163c4a11628f55a4df523b3ef84604051610fa091815260200190565b60405180910390a350505050565b73ffffffffffffffffffffffffffffffffffffffff82166110375760405162461bcd60e51b815260206004820152602160248201527f45524332303a206275726e2066726f6d20746865207a65726f2061646472657360448201527f730000000000000000000000000000000000000000000000000000000000000060648201526084016106a1565b73ffffffffffffffffffffffffffffffffffffffff8216600090815260208190526040902054818110156110d35760405162461bcd60e51b815260206004820152602260248201527f45524332303a206275726e20616d6f756e7420657863656564732062616c616e60448201527f636500000000000000000000000000000000000000000000000000000000000060648201526084016106a1565b6110dd8282611540565b73ffffffffffffffffffffffffffffffffffffffff841660009081526020819052604081209190915560028054849290611118908490611540565b909155505060405182815260009073ffffffffffffffffffffffffffffffffffffffff8516907fddf252ad1be2c89b69c2b068fc378daa952ba7f163c4a11628f55a4df523b3ef90602001610cfe565b6040805160008082526020820190925273ffffffffffffffffffffffffffffffffffffffff841690839060405161119f9190611445565b60006040518083038185875af1925050503d80600081146111dc576040519150601f19603f3d011682016040523d82523d6000602084013e6111e1565b606091505b5050905080610a095760405162461bcd60e51b815260206004820152601360248201527f455448207472616e73666572206661696c65640000000000000000000000000060448201526064016106a1565b73ffffffffffffffffffffffffffffffffffffffff82166112955760405162461bcd60e51b815260206004820152601f60248201527f45524332303a206d696e7420746f20746865207a65726f20616464726573730060448201526064016106a1565b80600260008282546112a791906114b2565b909155505073ffffffffffffffffffffffffffffffffffffffff8216600090815260208190526040812080548392906112e19084906114b2565b909155505060405181815273ffffffffffffffffffffffffffffffffffffffff8316906000907fddf252ad1be2c89b69c2b068fc378daa952ba7f163c4a11628f55a4df523b3ef9060200160405180910390a35050565b803573ffffffffffffffffffffffffffffffffffffffff811681146107c857600080fd5b60006020828403121561136d578081fd5b610d1d82611338565b60008060408385031215611388578081fd5b61139183611338565b915061139f60208401611338565b90509250929050565b6000806000606084860312156113bc578081fd5b6113c584611338565b92506113d360208501611338565b9150604084013590509250925092565b600080604083850312156113f5578182fd5b6113fe83611338565b946020939093013593505050565b60006020828403121561141d578081fd5b5035919050565b60008060408385031215611436578182fd5b50508035926020909101359150565b60008251611457818460208701611557565b9190910192915050565b6000602082528251806020840152611480816040850160208701611557565b601f017fffffffffffffffffffffffffffffffffffffffffffffffffffffffffffffffe0169190910160400192915050565b600082198211156114c5576114c56115db565b500190565b6000826114fe577f4e487b710000000000000000000000000000000000000000000000000000000081526012600452602481fd5b500490565b6000817fffffffffffffffffffffffffffffffffffffffffffffffffffffffffffffffff048311821515161561153b5761153b6115db565b500290565b600082821015611552576115526115db565b500390565b60005b8381101561157257818101518382015260200161155a565b83811115611581576000848401525b50505050565b600181811c9082168061159b57607f821691505b602082108114156115d5577f4e487b7100000000000000000000000000000000000000000000000000000000600052602260045260246000fd5b50919050565b7f4e487b7100000000000000000000000000000000000000000000000000000000600052601160045260246000fdfea264697066735822122002a8704b4861f8e01895d02a001208ce3d94b0d63876df07c5425351a34a122d64736f6c63430008030033",
  "linkReferences": {},
  "deployedLinkReferences": {}
}