{
  "_format": "hh-sol-artifact-1",
  "contractName": "PSI",
  "sourceName": "contracts/PSI.sol",
  "abi": [
    {
      "inputs": [
        {
          "internalType": "address",
          "name": "deepGemsAddress",
          "type": "address"
        }
      ],
      "stateMutability": "nonpayable",
      "type": "constructor"
    },
    {
      "anonymous": false,
      "inputs": [
        {
          "indexed": true,
          "internalType": "address",
          "name": "owner",
          "type": "address"
        },
        {
          "indexed": true,
          "internalType": "address",
          "name": "spender",
          "type": "address"
        },
        {
          "indexed": false,
          "internalType": "uint256",
          "name": "value",
          "type": "uint256"
        }
      ],
      "name": "Approval",
      "type": "event"
    },
    {
      "anonymous": false,
      "inputs": [
        {
          "indexed": true,
          "internalType": "address",
          "name": "from",
          "type": "address"
        },
        {
          "indexed": true,
          "internalType": "address",
          "name": "to",
          "type": "address"
        },
        {
          "indexed": false,
          "internalType": "uint256",
          "name": "value",
          "type": "uint256"
        }
      ],
      "name": "Transfer",
      "type": "event"
    },
    {
      "inputs": [
        {
          "internalType": "address",
          "name": "owner",
          "type": "address"
        },
        {
          "internalType": "address",
          "name": "spender",
          "type": "address"
        }
      ],
      "name": "allowance",
      "outputs": [
        {
          "internalType": "uint256",
          "name": "",
          "type": "uint256"
        }
      ],
      "stateMutability": "view",
      "type": "function"
    },
    {
      "inputs": [
        {
          "internalType": "address",
          "name": "spender",
          "type": "address"
        },
        {
          "internalType": "uint256",
          "name": "amount",
          "type": "uint256"
        }
      ],
      "name": "approve",
      "outputs": [
        {
          "internalType": "bool",
          "name": "",
          "type": "bool"
        }
      ],
      "stateMutability": "nonpayable",
      "type": "function"
    },
    {
      "inputs": [
        {
          "internalType": "address",
          "name": "account",
          "type": "address"
        }
      ],
      "name": "balanceOf",
      "outputs": [
        {
          "internalType": "uint256",
          "name": "",
          "type": "uint256"
        }
      ],
      "stateMutability": "view",
      "type": "function"
    },
    {
      "inputs": [
        {
          "internalType": "uint256",
          "name": "tokensToBurn",
          "type": "uint256"
        },
        {
          "internalType": "uint256",
          "name": "_minEther",
          "type": "uint256"
        }
      ],
      "name": "burn",
      "outputs": [],
      "stateMutability": "payable",
      "type": "function"
    },
    {
      "inputs": [],
      "name": "decimals",
      "outputs": [
        {
          "internalType": "uint8",
          "name": "",
          "type": "uint8"
        }
      ],
      "stateMutability": "view",
      "type": "function"
    },
    {
      "inputs": [
        {
          "internalType": "address",
          "name": "spender",
          "type": "address"
        },
        {
          "internalType": "uint256",
          "name": "subtractedValue",
          "type": "uint256"
        }
      ],
      "name": "decreaseAllowance",
      "outputs": [
        {
          "internalType": "bool",
          "name": "",
          "type": "bool"
        }
      ],
      "stateMutability": "nonpayable",
      "type": "function"
    },
    {
      "inputs": [
        {
          "internalType": "address",
          "name": "spender",
          "type": "address"
        },
        {
          "internalType": "uint256",
          "name": "addedValue",
          "type": "uint256"
        }
      ],
      "name": "increaseAllowance",
      "outputs": [
        {
          "internalType": "bool",
          "name": "",
          "type": "bool"
        }
      ],
      "stateMutability": "nonpayable",
      "type": "function"
    },
    {
      "inputs": [
        {
          "internalType": "uint256",
          "name": "tokensToMint",
          "type": "uint256"
        }
      ],
      "name": "mint",
      "outputs": [],
      "stateMutability": "payable",
      "type": "function"
    },
    {
      "inputs": [],
      "name": "name",
      "outputs": [
        {
          "internalType": "string",
          "name": "",
          "type": "string"
        }
      ],
      "stateMutability": "view",
      "type": "function"
    },
    {
      "inputs": [
        {
          "internalType": "uint256",
          "name": "tokensToBurn",
          "type": "uint256"
        }
      ],
      "name": "quoteBurn",
      "outputs": [
        {
          "internalType": "uint256",
          "name": "",
          "type": "uint256"
        }
      ],
      "stateMutability": "view",
      "type": "function"
    },
    {
      "inputs": [
        {
          "internalType": "uint256",
          "name": "tokensToBurn",
          "type": "uint256"
        }
      ],
      "name": "quoteBurnRaw",
      "outputs": [
        {
          "internalType": "uint256",
          "name": "",
          "type": "uint256"
        }
      ],
      "stateMutability": "view",
      "type": "function"
    },
    {
      "inputs": [
        {
          "internalType": "uint256",
          "name": "tokensToMint",
          "type": "uint256"
        }
      ],
      "name": "quoteMint",
      "outputs": [
        {
          "internalType": "uint256",
          "name": "totalEther",
          "type": "uint256"
        },
        {
          "internalType": "uint256",
          "name": "artistCut",
          "type": "uint256"
        }
      ],
      "stateMutability": "view",
      "type": "function"
    },
    {
      "inputs": [
        {
          "internalType": "uint256",
          "name": "tokensToMint",
          "type": "uint256"
        }
      ],
      "name": "quoteMintRaw",
      "outputs": [
        {
          "internalType": "uint256",
          "name": "",
          "type": "uint256"
        }
      ],
      "stateMutability": "view",
      "type": "function"
    },
    {
      "inputs": [],
      "name": "symbol",
      "outputs": [
        {
          "internalType": "string",
          "name": "",
          "type": "string"
        }
      ],
      "stateMutability": "view",
      "type": "function"
    },
    {
      "inputs": [],
      "name": "totalSupply",
      "outputs": [
        {
          "internalType": "uint256",
          "name": "",
          "type": "uint256"
        }
      ],
      "stateMutability": "view",
      "type": "function"
    },
    {
      "inputs": [
        {
          "internalType": "address",
          "name": "recipient",
          "type": "address"
        },
        {
          "internalType": "uint256",
          "name": "amount",
          "type": "uint256"
        }
      ],
      "name": "transfer",
      "outputs": [
        {
          "internalType": "bool",
          "name": "",
          "type": "bool"
        }
      ],
      "stateMutability": "nonpayable",
      "type": "function"
    },
    {
      "inputs": [
        {
          "internalType": "address",
          "name": "sender",
          "type": "address"
        },
        {
          "internalType": "address",
          "name": "recipient",
          "type": "address"
        },
        {
          "internalType": "uint256",
          "name": "amount",
          "type": "uint256"
        }
      ],
      "name": "transferFrom",
      "outputs": [
        {
          "internalType": "bool",
          "name": "",
          "type": "bool"
        }
      ],
      "stateMutability": "nonpayable",
      "type": "function"
    },
    {
      "inputs": [
        {
          "internalType": "address",
          "name": "sender",
          "type": "address"
        },
        {
          "internalType": "uint256",
          "name": "amount",
          "type": "uint256"
        }
      ],
      "name": "transferToDeepGems",
      "outputs": [],
      "stateMutability": "nonpayable",
      "type": "function"
    }
  ],
  "bytecode": "0x60806040526501d1a94a20006006553480156200001b57600080fd5b506040516200174838038062001748833981810160405260208110156200004157600080fd5b505160408051808201825260038082526250534960e81b6020838101828152855180870190965283865290850191909152825192939262000084929190620000d1565b5080516200009a906004906020840190620000d1565b50506005805460ff1916601217905550600780546001600160a01b039092166001600160a01b03199092169190911790556200017d565b828054600181600116156101000203166002900490600052602060002090601f01602090048101928262000109576000855562000154565b82601f106200012457805160ff191683800117855562000154565b8280016001018555821562000154579182015b828111156200015457825182559160200191906001019062000137565b506200016292915062000166565b5090565b5b8082111562000162576000815560010162000167565b6115bb806200018d6000396000f3fe6080604052600436106101295760003560e01c806395d89b41116100a5578063b390c0ab11610074578063decb2c9911610059578063decb2c99146104d2578063efe9229c146104fc578063fe9b9ad51461052657610129565b8063b390c0ab14610467578063dd62ed3e1461048a57610129565b806395d89b41146103a7578063a0712d68146103bc578063a457c2d7146103db578063a9059cbb1461042157610129565b8063313ce567116100fc57806344417c84116100e157806344417c84146102fa578063665216c61461032457806370a082311461036757610129565b8063313ce5671461028957806339509351146102b457610129565b806306fdde031461012e578063095ea7b3146101b857806318160ddd1461021257806323b872dd14610239575b600080fd5b34801561013a57600080fd5b5061014361056c565b6040805160208082528351818301528351919283929083019185019080838360005b8381101561017d578181015183820152602001610165565b50505050905090810190601f1680156101aa5780820380516001836020036101000a031916815260200191505b509250505060405180910390f35b3480156101c457600080fd5b506101fe600480360360408110156101db57600080fd5b5073ffffffffffffffffffffffffffffffffffffffff8135169060200135610620565b604080519115158252519081900360200190f35b34801561021e57600080fd5b5061022761063e565b60408051918252519081900360200190f35b34801561024557600080fd5b506101fe6004803603606081101561025c57600080fd5b5073ffffffffffffffffffffffffffffffffffffffff813581169160208101359091169060400135610644565b34801561029557600080fd5b5061029e6106e5565b6040805160ff9092168252519081900360200190f35b3480156102c057600080fd5b506101fe600480360360408110156102d757600080fd5b5073ffffffffffffffffffffffffffffffffffffffff81351690602001356106ee565b34801561030657600080fd5b506102276004803603602081101561031d57600080fd5b5035610749565b34801561033057600080fd5b5061034e6004803603602081101561034757600080fd5b50356107ba565b6040805192835260208301919091528051918290030190f35b34801561037357600080fd5b506102276004803603602081101561038a57600080fd5b503573ffffffffffffffffffffffffffffffffffffffff166107ea565b3480156103b357600080fd5b50610143610812565b6103d9600480360360208110156103d257600080fd5b5035610891565b005b3480156103e757600080fd5b506101fe600480360360408110156103fe57600080fd5b5073ffffffffffffffffffffffffffffffffffffffff8135169060200135610936565b34801561042d57600080fd5b506101fe6004803603604081101561044457600080fd5b5073ffffffffffffffffffffffffffffffffffffffff81351690602001356109ab565b6103d96004803603604081101561047d57600080fd5b50803590602001356109bf565b34801561049657600080fd5b50610227600480360360408110156104ad57600080fd5b5073ffffffffffffffffffffffffffffffffffffffff81358116916020013516610a28565b3480156104de57600080fd5b50610227600480360360208110156104f557600080fd5b5035610a60565b34801561050857600080fd5b506102276004803603602081101561051f57600080fd5b5035610a71565b34801561053257600080fd5b506103d96004803603604081101561054957600080fd5b5073ffffffffffffffffffffffffffffffffffffffff8135169060200135610ab2565b60038054604080516020601f60027fffffffffffffffffffffffffffffffffffffffffffffffffffffffffffffffff6101006001881615020190951694909404938401819004810282018101909252828152606093909290918301828280156106165780601f106105eb57610100808354040283529160200191610616565b820191906000526020600020905b8154815290600101906020018083116105f957829003601f168201915b5050505050905090565b600061063461062d610aff565b8484610b03565b5060015b92915050565b60025490565b6000610651848484610c16565b6106db8461065d610aff565b6106d6856040518060600160405280602881526020016114cf6028913973ffffffffffffffffffffffffffffffffffffffff8a166000908152600160205260408120906106a8610aff565b73ffffffffffffffffffffffffffffffffffffffff1681526020810191909152604001600020549190610db2565b610b03565b5060019392505050565b60055460ff1690565b60006106346106fb610aff565b846106d6856001600061070c610aff565b73ffffffffffffffffffffffffffffffffffffffff908116825260208083019390935260409182016000908120918c168152925290205490610e49565b60008061075461063e565b9050600061076c600361076684610eaa565b90610ec0565b9050600061078760036107666107828689610f27565b610eaa565b905060006107958383610f27565b90506107b0816ec097ce7bc90715b34b9f1000000000610ec0565b9695505050505050565b60008060006107d960016107d360065461076688610a71565b90610e49565b601481049081019590945092505050565b73ffffffffffffffffffffffffffffffffffffffff1660009081526020819052604090205490565b60048054604080516020601f60027fffffffffffffffffffffffffffffffffffffffffffffffffffffffffffffffff6101006001881615020190951694909404938401819004810282018101909252828152606093909290918301828280156106165780601f106105eb57610100808354040283529160200191610616565b60008061089d836107ba565b91509150348211156108f6576040805162461bcd60e51b815260206004820152601960248201527f446964206e6f742073656e6420656e6f75676820457468657200000000000000604482015290519081900360640190fd5b6109003384610f84565b61091e732546bcd3c84621e976d8185a91a922ae77ecec308261109b565b6109313361092c3485610f27565b61109b565b505050565b6000610634610943610aff565b846106d685604051806060016040528060258152602001611561602591396001600061096d610aff565b73ffffffffffffffffffffffffffffffffffffffff908116825260208083019390935260409182016000908120918d16815292529020549190610db2565b60006106346109b8610aff565b8484610c16565b60006109ca83610a60565b905081811015610a0b5760405162461bcd60e51b81526004018080602001828103825260358152602001806114796035913960400191505060405180910390fd5b610a1533846111cf565b610a1e816112ff565b610931338261109b565b73ffffffffffffffffffffffffffffffffffffffff918216600090815260016020908152604080832093909416825291909152205490565b600061063860065461076684610749565b600080610a7c61063e565b90506000610a8e600361076684610eaa565b90506000610aa460036107666107828689610e49565b905060006107958284610f27565b60075473ffffffffffffffffffffffffffffffffffffffff163314610ad657600080fd5b600754610afb90839073ffffffffffffffffffffffffffffffffffffffff1683610c16565b5050565b3390565b73ffffffffffffffffffffffffffffffffffffffff8316610b555760405162461bcd60e51b815260040180806020018281038252602481526020018061153d6024913960400191505060405180910390fd5b73ffffffffffffffffffffffffffffffffffffffff8216610ba75760405162461bcd60e51b81526004018080602001828103825260228152602001806114316022913960400191505060405180910390fd5b73ffffffffffffffffffffffffffffffffffffffff808416600081815260016020908152604080832094871680845294825291829020859055815185815291517f8c5be1e5ebec7d5bd14f71427d1e84f3dd0314c0f7b2291e5b200ac8c7c3b9259281900390910190a3505050565b73ffffffffffffffffffffffffffffffffffffffff8316610c685760405162461bcd60e51b81526004018080602001828103825260258152602001806115186025913960400191505060405180910390fd5b73ffffffffffffffffffffffffffffffffffffffff8216610cba5760405162461bcd60e51b81526004018080602001828103825260238152602001806113ec6023913960400191505060405180910390fd5b610cc5838383610931565b610d0f816040518060600160405280602681526020016114536026913973ffffffffffffffffffffffffffffffffffffffff86166000908152602081905260409020549190610db2565b73ffffffffffffffffffffffffffffffffffffffff8085166000908152602081905260408082209390935590841681522054610d4b9082610e49565b73ffffffffffffffffffffffffffffffffffffffff8084166000818152602081815260409182902094909455805185815290519193928716927fddf252ad1be2c89b69c2b068fc378daa952ba7f163c4a11628f55a4df523b3ef92918290030190a3505050565b60008184841115610e415760405162461bcd60e51b81526004018080602001828103825283818151815260200191508051906020019080838360005b83811015610e06578181015183820152602001610dee565b50505050905090810190601f168015610e335780820380516001836020036101000a031916815260200191505b509250505060405180910390fd5b505050900390565b600082820183811015610ea3576040805162461bcd60e51b815260206004820152601b60248201527f536166654d6174683a206164646974696f6e206f766572666c6f770000000000604482015290519081900360640190fd5b9392505050565b600061063882610eba8180611371565b90611371565b6000808211610f16576040805162461bcd60e51b815260206004820152601a60248201527f536166654d6174683a206469766973696f6e206279207a65726f000000000000604482015290519081900360640190fd5b818381610f1f57fe5b049392505050565b600082821115610f7e576040805162461bcd60e51b815260206004820152601e60248201527f536166654d6174683a207375627472616374696f6e206f766572666c6f770000604482015290519081900360640190fd5b50900390565b73ffffffffffffffffffffffffffffffffffffffff8216610fec576040805162461bcd60e51b815260206004820152601f60248201527f45524332303a206d696e7420746f20746865207a65726f206164647265737300604482015290519081900360640190fd5b610ff860008383610931565b6002546110059082610e49565b60025573ffffffffffffffffffffffffffffffffffffffff82166000908152602081905260409020546110389082610e49565b73ffffffffffffffffffffffffffffffffffffffff83166000818152602081815260408083209490945583518581529351929391927fddf252ad1be2c89b69c2b068fc378daa952ba7f163c4a11628f55a4df523b3ef9281900390910190a35050565b6040805160008082526020820190925273ffffffffffffffffffffffffffffffffffffffff84169083906040518082805190602001908083835b6020831061111257805182527fffffffffffffffffffffffffffffffffffffffffffffffffffffffffffffffe090920191602091820191016110d5565b6001836020036101000a03801982511681845116808217855250505050505090500191505060006040518083038185875af1925050503d8060008114611174576040519150601f19603f3d011682016040523d82523d6000602084013e611179565b606091505b5050905080610931576040805162461bcd60e51b815260206004820152601360248201527f455448207472616e73666572206661696c656400000000000000000000000000604482015290519081900360640190fd5b73ffffffffffffffffffffffffffffffffffffffff82166112215760405162461bcd60e51b81526004018080602001828103825260218152602001806114f76021913960400191505060405180910390fd5b61122d82600083610931565b6112778160405180606001604052806022815260200161140f6022913973ffffffffffffffffffffffffffffffffffffffff85166000908152602081905260409020549190610db2565b73ffffffffffffffffffffffffffffffffffffffff83166000908152602081905260409020556002546112aa9082610f27565b60025560408051828152905160009173ffffffffffffffffffffffffffffffffffffffff8516917fddf252ad1be2c89b69c2b068fc378daa952ba7f163c4a11628f55a4df523b3ef9181900360200190a35050565b6040805160248082018490528251808303909101815260449091019091526020810180517bffffffffffffffffffffffffffffffffffffffffffffffffffffffff167ff5b1bba90000000000000000000000000000000000000000000000000000000017905261136e906113ca565b50565b60008261138057506000610638565b8282028284828161138d57fe5b0414610ea35760405162461bcd60e51b81526004018080602001828103825260218152602001806114ae6021913960400191505060405180910390fd5b80516a636f6e736f6c652e6c6f67602083016000808483855afa505050505056fe45524332303a207472616e7366657220746f20746865207a65726f206164647265737345524332303a206275726e20616d6f756e7420657863656564732062616c616e636545524332303a20617070726f766520746f20746865207a65726f206164647265737345524332303a207472616e7366657220616d6f756e7420657863656564732062616c616e63654e756d626572206f662045746865722072657475726e656420776f756c64206265206c6f776572207468616e206d696e4574686572536166654d6174683a206d756c7469706c69636174696f6e206f766572666c6f7745524332303a207472616e7366657220616d6f756e74206578636565647320616c6c6f77616e636545524332303a206275726e2066726f6d20746865207a65726f206164647265737345524332303a207472616e736665722066726f6d20746865207a65726f206164647265737345524332303a20617070726f76652066726f6d20746865207a65726f206164647265737345524332303a2064656372656173656420616c6c6f77616e63652062656c6f77207a65726fa26469706673582212200e0cf48f24d94394d44b61863d69de5e5b6e009b6e71dc44911eb1d66fd8b70864736f6c63430007060033",
  "linkReferences": {},
  "deployedLinkReferences": {}
}